{
  "_format": "hh-sol-artifact-1",
  "contractName": "Chocomint",
  "sourceName": "contracts/Chocomint.sol",
  "abi": [
    {
      "anonymous": false,
      "inputs": [
        {
          "indexed": true,
          "internalType": "address",
          "name": "owner",
          "type": "address"
        },
        {
          "indexed": true,
          "internalType": "address",
          "name": "approved",
          "type": "address"
        },
        {
          "indexed": true,
          "internalType": "uint256",
          "name": "tokenId",
          "type": "uint256"
        }
      ],
      "name": "Approval",
      "type": "event"
    },
    {
      "anonymous": false,
      "inputs": [
        {
          "indexed": true,
          "internalType": "address",
          "name": "owner",
          "type": "address"
        },
        {
          "indexed": true,
          "internalType": "address",
          "name": "operator",
          "type": "address"
        },
        {
          "indexed": false,
          "internalType": "bool",
          "name": "approved",
          "type": "bool"
        }
      ],
      "name": "ApprovalForAll",
      "type": "event"
    },
    {
      "anonymous": false,
      "inputs": [
        {
          "indexed": true,
          "internalType": "address",
          "name": "from",
          "type": "address"
        },
        {
          "indexed": true,
          "internalType": "address",
          "name": "to",
          "type": "address"
        },
        {
          "indexed": true,
          "internalType": "uint256",
          "name": "tokenId",
          "type": "uint256"
        }
      ],
      "name": "Transfer",
      "type": "event"
    },
    {
      "constant": false,
      "inputs": [
        {
          "internalType": "address",
          "name": "to",
          "type": "address"
        },
        {
          "internalType": "uint256",
          "name": "tokenId",
          "type": "uint256"
        }
      ],
      "name": "approve",
      "outputs": [],
      "payable": false,
      "stateMutability": "nonpayable",
      "type": "function"
    },
    {
      "constant": true,
      "inputs": [
        {
          "internalType": "address",
          "name": "owner",
          "type": "address"
        }
      ],
      "name": "balanceOf",
      "outputs": [
        {
          "internalType": "uint256",
          "name": "",
          "type": "uint256"
        }
      ],
      "payable": false,
      "stateMutability": "view",
      "type": "function"
    },
    {
      "constant": true,
      "inputs": [
        {
          "internalType": "uint256",
          "name": "tokenId",
          "type": "uint256"
        }
      ],
      "name": "getApproved",
      "outputs": [
        {
          "internalType": "address",
          "name": "",
          "type": "address"
        }
      ],
      "payable": false,
      "stateMutability": "view",
      "type": "function"
    },
    {
      "constant": true,
      "inputs": [
        {
          "internalType": "uint256",
          "name": "",
          "type": "uint256"
        }
      ],
      "name": "imageMemory",
      "outputs": [
        {
          "internalType": "bytes32",
          "name": "",
          "type": "bytes32"
        }
      ],
      "payable": false,
      "stateMutability": "view",
      "type": "function"
    },
    {
      "constant": true,
      "inputs": [
        {
          "internalType": "address",
          "name": "owner",
          "type": "address"
        },
        {
          "internalType": "address",
          "name": "operator",
          "type": "address"
        }
      ],
      "name": "isApprovedForAll",
      "outputs": [
        {
          "internalType": "bool",
          "name": "",
          "type": "bool"
        }
      ],
      "payable": false,
      "stateMutability": "view",
      "type": "function"
    },
    {
      "constant": true,
      "inputs": [
        {
          "internalType": "uint256",
          "name": "",
          "type": "uint256"
        }
      ],
      "name": "issMemory",
      "outputs": [
        {
          "internalType": "address",
          "name": "",
          "type": "address"
        }
      ],
      "payable": false,
      "stateMutability": "view",
      "type": "function"
    },
    {
      "constant": false,
      "inputs": [
        {
          "internalType": "bytes32",
          "name": "_name",
          "type": "bytes32"
        },
        {
          "internalType": "bytes32",
          "name": "_image",
          "type": "bytes32"
        }
      ],
      "name": "mint",
      "outputs": [],
      "payable": false,
      "stateMutability": "nonpayable",
      "type": "function"
    },
    {
      "constant": true,
      "inputs": [
        {
          "internalType": "uint256",
          "name": "",
          "type": "uint256"
        }
      ],
      "name": "nameMemory",
      "outputs": [
        {
          "internalType": "bytes32",
          "name": "",
          "type": "bytes32"
        }
      ],
      "payable": false,
      "stateMutability": "view",
      "type": "function"
    },
    {
      "constant": true,
      "inputs": [
        {
          "internalType": "uint256",
          "name": "tokenId",
          "type": "uint256"
        }
      ],
      "name": "ownerOf",
      "outputs": [
        {
          "internalType": "address",
          "name": "",
          "type": "address"
        }
      ],
      "payable": false,
      "stateMutability": "view",
      "type": "function"
    },
    {
      "constant": false,
      "inputs": [
        {
          "internalType": "address",
          "name": "from",
          "type": "address"
        },
        {
          "internalType": "address",
          "name": "to",
          "type": "address"
        },
        {
          "internalType": "uint256",
          "name": "tokenId",
          "type": "uint256"
        }
      ],
      "name": "safeTransferFrom",
      "outputs": [],
      "payable": false,
      "stateMutability": "nonpayable",
      "type": "function"
    },
    {
      "constant": false,
      "inputs": [
        {
          "internalType": "address",
          "name": "from",
          "type": "address"
        },
        {
          "internalType": "address",
          "name": "to",
          "type": "address"
        },
        {
          "internalType": "uint256",
          "name": "tokenId",
          "type": "uint256"
        },
        {
          "internalType": "bytes",
          "name": "_data",
          "type": "bytes"
        }
      ],
      "name": "safeTransferFrom",
      "outputs": [],
      "payable": false,
      "stateMutability": "nonpayable",
      "type": "function"
    },
    {
      "constant": false,
      "inputs": [
        {
          "internalType": "address",
          "name": "to",
          "type": "address"
        },
        {
          "internalType": "bool",
          "name": "approved",
          "type": "bool"
        }
      ],
      "name": "setApprovalForAll",
      "outputs": [],
      "payable": false,
      "stateMutability": "nonpayable",
      "type": "function"
    },
    {
      "constant": true,
      "inputs": [
        {
          "internalType": "bytes4",
          "name": "interfaceId",
          "type": "bytes4"
        }
      ],
      "name": "supportsInterface",
      "outputs": [
        {
          "internalType": "bool",
          "name": "",
          "type": "bool"
        }
      ],
      "payable": false,
      "stateMutability": "view",
      "type": "function"
    },
    {
      "constant": true,
      "inputs": [
        {
          "internalType": "uint256",
          "name": "tokenId",
          "type": "uint256"
        }
      ],
      "name": "tokenURI",
      "outputs": [
        {
          "internalType": "string",
          "name": "",
          "type": "string"
        }
      ],
      "payable": false,
      "stateMutability": "view",
      "type": "function"
    },
    {
      "constant": false,
      "inputs": [
        {
          "internalType": "address",
          "name": "from",
          "type": "address"
        },
        {
          "internalType": "address",
          "name": "to",
          "type": "address"
        },
        {
          "internalType": "uint256",
          "name": "tokenId",
          "type": "uint256"
        }
      ],
      "name": "transferFrom",
      "outputs": [],
      "payable": false,
      "stateMutability": "nonpayable",
      "type": "function"
    }
  ],
  "bytecode": "0x60806040526200001f6301ffc9a760e01b6001600160e01b036200004016565b6200003a6380ac58cd60e01b6001600160e01b036200004016565b620000f7565b6001600160e01b03198082161415620000765760405162461bcd60e51b81526004016200006d90620000d6565b60405180910390fd5b6001600160e01b0319166000908152602081905260409020805460ff19166001179055565b6000620000aa601c83620000ee565b7f4552433136353a20696e76616c696420696e7465726661636520696400000000815260200192915050565b60208082528101620000e8816200009b565b92915050565b90815260200190565b61212180620001076000396000f3fe608060405234801561001057600080fd5b50600436106100f55760003560e01c806370a0823111610097578063cbc200ed11610066578063cbc200ed1461020a578063d46e174d1461021d578063db88c05e14610230578063e985e9c514610243576100f5565b806370a08231146101b1578063a22cb465146101c4578063b88d4fde146101d7578063c87b56dd146101ea576100f5565b806323b872dd116100d357806323b872dd14610158578063263e55d61461016b57806342842e0e1461018b5780636352211e1461019e576100f5565b806301ffc9a7146100fa578063081812fc14610123578063095ea7b314610143575b600080fd5b61010d6101083660046115e7565b610256565b60405161011a9190611e87565b60405180910390f35b610136610131366004611623565b610279565b60405161011a9190611e3f565b61015661015136600461157a565b6102c5565b005b610156610166366004611484565b6103aa565b61017e610179366004611623565b6103e7565b60405161011a9190611e95565b610156610199366004611484565b6103f9565b6101366101ac366004611623565b610414565b61017e6101bf36600461142c565b61044f565b6101566101d236600461154a565b610498565b6101566101e53660046114d1565b610566565b6101fd6101f8366004611623565b6105a5565b60405161011a9190611ea3565b610136610218366004611623565b6106e3565b61015661022b3660046115c8565b6106fe565b61017e61023e366004611623565b610778565b61010d61025136600461144a565b61078a565b6001600160e01b0319811660009081526020819052604090205460ff165b919050565b6000610284826107b8565b6102a95760405162461bcd60e51b81526004016102a090611f54565b60405180910390fd5b506000908152600260205260409020546001600160a01b031690565b60006102d082610414565b9050806001600160a01b0316836001600160a01b031614156103045760405162461bcd60e51b81526004016102a090611f74565b806001600160a01b03166103166107d5565b6001600160a01b031614806103325750610332816102516107d5565b61034e5760405162461bcd60e51b81526004016102a090611f14565b60008281526002602052604080822080546001600160a01b0319166001600160a01b0387811691821790925591518593918516917f8c5be1e5ebec7d5bd14f71427d1e84f3dd0314c0f7b2291e5b200ac8c7c3b92591a4505050565b6103bb6103b56107d5565b826107d9565b6103d75760405162461bcd60e51b81526004016102a090611f84565b6103e283838361085e565b505050565b60056020526000908152604090205481565b6103e283838360405180602001604052806000815250610566565b6000818152600160205260408120546001600160a01b0316806104495760405162461bcd60e51b81526004016102a090611f34565b92915050565b60006001600160a01b0382166104775760405162461bcd60e51b81526004016102a090611f24565b6001600160a01b038216600090815260036020526040902061044990610964565b6104a06107d5565b6001600160a01b0316826001600160a01b031614156104d15760405162461bcd60e51b81526004016102a090611ee4565b80600460006104de6107d5565b6001600160a01b03908116825260208083019390935260409182016000908120918716808252919093529120805460ff1916921515929092179091556105226107d5565b6001600160a01b03167f17307eab39ab6107e8899845ad3d59bd9653f200f220920489ca2b5937696c318360405161055a9190611e87565b60405180910390a35050565b6105776105716107d5565b836107d9565b6105935760405162461bcd60e51b81526004016102a090611f84565b61059f84848484610968565b50505050565b60606105b0826107b8565b6105cc5760405162461bcd60e51b81526004016102a090611f04565b6106bd6106b86105e26105dd61099b565b61099f565b61060a306040516020016105f69190611c7a565b604051602081830303815290604052610a52565b6106138661099f565b60008781526005602052604090205461062b90610be5565b60008881526006602052604090205461064390610cdb565b600089815260076020908152604091829020549151610672926105f6926001600160a01b039091169101611c7a565b60405160200161068796959493929190611d45565b60408051601f19818403018152908290526106a491602001611c8f565b604051602081830303815290604052610cf6565b610cdb565b6040516020016106cd9190611c8f565b6040516020818303038152906040529050919050565b6007602052600090815260409020546001600160a01b031681565b600061070861099b565b30848433604051602001610720959493929190611de6565b60408051601f198184030181529181528151602092830120600081815260058452828120879055600684528281208690556007909352912080546001600160a01b031916339081179091559091506103e29082610d90565b60066020526000908152604090205481565b6001600160a01b03918216600090815260046020908152604080832093909416825291909152205460ff1690565b6000908152600160205260409020546001600160a01b0316151590565b3390565b60006107e4826107b8565b6108005760405162461bcd60e51b81526004016102a090611ef4565b600061080b83610414565b9050806001600160a01b0316846001600160a01b031614806108465750836001600160a01b031661083b84610279565b6001600160a01b0316145b806108565750610856818561078a565b949350505050565b826001600160a01b031661087182610414565b6001600160a01b0316146108975760405162461bcd60e51b81526004016102a090611f64565b6001600160a01b0382166108bd5760405162461bcd60e51b81526004016102a090611ed4565b6108c681610e57565b6001600160a01b03831660009081526003602052604090206108e790610e94565b6001600160a01b038216600090815260036020526040902061090890610eab565b60008181526001602052604080822080546001600160a01b0319166001600160a01b0386811691821790925591518493918716917fddf252ad1be2c89b69c2b068fc378daa952ba7f163c4a11628f55a4df523b3ef91a4505050565b5490565b61097384848461085e565b61097f84848484610eb4565b61059f5760405162461bcd60e51b81526004016102a090611eb4565b4690565b6060816109c457506040805180820190915260018152600360fc1b6020820152610274565b8160005b81156109dc57600101600a820491506109c8565b6060816040519080825280601f01601f191660200182016040528015610a09576020820181803883390190505b5090505b84156108565760001990910190600a850660300160f81b818381518110610a3057fe5b60200101906001600160f81b031916908160001a905350600a85049450610a0d565b6060806040518060400160405280601081526020016f181899199a1a9b1b9c1cb0b131b232b360811b8152509050606083516002026002016040519080825280601f01601f191660200182016040528015610ab4576020820181803883390190505b509050600360fc1b81600081518110610ac957fe5b60200101906001600160f81b031916908160001a905350600f60fb1b81600181518110610af257fe5b60200101906001600160f81b031916908160001a90535060005b8451811015610bdd57826004868381518110610b2457fe5b016020015182516001600160f81b031990911690911c60f81c908110610b4657fe5b602001015160f81c60f81b828260020260020181518110610b6357fe5b60200101906001600160f81b031916908160001a90535082858281518110610b8757fe5b602091010151815160f89190911c600f16908110610ba157fe5b602001015160f81c60f81b828260020260030181518110610bbe57fe5b60200101906001600160f81b031916908160001a905350600101610b0c565b509392505050565b606060005b60208160ff16108015610c185750828160ff1660208110610c0757fe5b1a60f81b6001600160f81b03191615155b15610c2557600101610bea565b60608160ff166040519080825280601f01601f191660200182016040528015610c55576020820181803883390190505b509050600091505b60208260ff16108015610c8b5750838260ff1660208110610c7a57fe5b1a60f81b6001600160f81b03191615155b15610cd457838260ff1660208110610c9f57fe5b1a60f81b818360ff1681518110610cb257fe5b60200101906001600160f81b031916908160001a905350600190910190610c5d565b9392505050565b6060610449610cf1610cec84610fee565b611001565b6111d5565b60006060610d0483516111e8565b90506060610d1b82516002028551600401016111e8565b9050600281838685604051602001610d369493929190611cb3565b60408051601f1981840301815290829052610d5091611c8f565b602060405180830381855afa158015610d6d573d6000803e3d6000fd5b5050506040513d601f19601f8201168201806040525061085691908101906115aa565b6001600160a01b038216610db65760405162461bcd60e51b81526004016102a090611f44565b610dbf816107b8565b15610ddc5760405162461bcd60e51b81526004016102a090611ec4565b600081815260016020908152604080832080546001600160a01b0319166001600160a01b038716908117909155835260039091529020610e1b90610eab565b60405181906001600160a01b038416906000907fddf252ad1be2c89b69c2b068fc378daa952ba7f163c4a11628f55a4df523b3ef908290a45050565b6000818152600260205260409020546001600160a01b031615610e9157600081815260026020526040902080546001600160a01b03191690555b50565b8054610ea790600163ffffffff61124616565b9055565b80546001019055565b6000610ec8846001600160a01b0316611288565b610ed457506001610856565b600060606001600160a01b038616630a85bd0160e11b610ef26107d5565b898888604051602401610f089493929190611e4d565b60408051601f198184030181529181526020820180516001600160e01b03166001600160e01b0319909416939093179092529051610f469190611c8f565b6000604051808303816000865af19150503d8060008114610f83576040519150601f19603f3d011682016040523d82523d6000602084013e610f88565b606091505b509150915081610fba57805115610fa25780518082602001fd5b60405162461bcd60e51b81526004016102a090611eb4565b600081806020019051610fd09190810190611605565b6001600160e01b031916630a85bd0160e11b14935061085692505050565b6060816040516020016106cd9190611d25565b6060806040518060600160405280603a81526020016120a5603a913960408051602e8082526105e0820190925291925060609190602082016105c0803883390190505060408051602e8082526060828101909352929350909160208201818038833901905050905060008260008151811061107857fe5b60ff90921660209283029190910190910152600160005b865181101561115b5760008782815181106110a657fe5b016020015160f81c905060005b8360ff16811015611114578581815181106110ca57fe5b602002602001015160ff166101000282019150603a82816110e757fe5b068682815181106110f457fe5b60ff90921660209283029190910190910152603a820491506001016110b3565b505b801561115257603a8106858460ff168151811061112f57fe5b60ff90921660209283029190910190910152600190920191603a81049050611116565b5060010161108f565b5060005b8160ff168110156111ca578484826001850360ff16038151811061117f57fe5b602002602001015160ff168151811061119457fe5b602001015160f81c60f81b8382815181106111ab57fe5b60200101906001600160f81b031916908160001a90535060010161115f565b509095945050505050565b6060816040516020016106cd9190611d0e565b60606080821015611203576111fc826112c1565b9050610274565b611212608083066080016112c1565b61121f6080845b046112c1565b604051602001611230929190611c9b565b6040516020818303038152906040529050610274565b6000610cd483836040518060400160405280601e81526020017f536166654d6174683a207375627472616374696f6e206f766572666c6f77000081525061136a565b6000813f7fc5d2460186f7233c927e7db2dcc703c0e500b653ca82273b7bfad8045d85a470818114801590610856575050151592915050565b6060816112dd5750604080516000815260208101909152610274565b6040805160018082528183019092526001600160f81b031960f885901b169160609190602082018180388339019050509050818160008151811061131d57fe5b60200101906001600160f81b031916908160001a90535061134061010085611219565b81604051602001611352929190611c9b565b60405160208183030381529060405292505050610274565b6000818484111561138e5760405162461bcd60e51b81526004016102a09190611ea3565b505050900390565b803561044981612075565b803561044981612089565b803561044981612092565b805161044981612092565b80356104498161209b565b80516104498161209b565b600082601f8301126113e957600080fd5b81356113fc6113f782611fbb565b611f94565b9150808252602083016020830185838301111561141857600080fd5b61142383828461201c565b50505092915050565b60006020828403121561143e57600080fd5b60006108568484611396565b6000806040838503121561145d57600080fd5b60006114698585611396565b925050602061147a85828601611396565b9150509250929050565b60008060006060848603121561149957600080fd5b60006114a58686611396565b93505060206114b686828701611396565b92505060406114c7868287016113ac565b9150509250925092565b600080600080608085870312156114e757600080fd5b60006114f38787611396565b945050602061150487828801611396565b9350506040611515878288016113ac565b925050606085013567ffffffffffffffff81111561153257600080fd5b61153e878288016113d8565b91505092959194509250565b6000806040838503121561155d57600080fd5b60006115698585611396565b925050602061147a858286016113a1565b6000806040838503121561158d57600080fd5b60006115998585611396565b925050602061147a858286016113ac565b6000602082840312156115bc57600080fd5b600061085684846113b7565b600080604083850312156115db57600080fd5b600061159985856113ac565b6000602082840312156115f957600080fd5b600061085684846113c2565b60006020828403121561161757600080fd5b600061085684846113cd565b60006020828403121561163557600080fd5b600061085684846113ac565b61164a81611ff0565b82525050565b61164a61165c82611ff0565b612054565b61164a81611ffb565b61164a81612000565b61164a61167f82612000565b612000565b600061168f82611fe3565b6116998185611fe7565b93506116a9818560208601612028565b6116b281612065565b9093019392505050565b60006116c782611fe3565b6116d18185610274565b93506116e1818560208601612028565b9290920192915050565b60006116f8600183610274565b600560f91b815260010192915050565b6000611715600b83610274565b6a11161134b6b0b3b2911d1160a91b8152600b0192915050565b600061173c600a83610274565b691116113730b6b2911d1160b11b8152600a0192915050565b6000611762603283611fe7565b7f4552433732313a207472616e7366657220746f206e6f6e20455243373231526581527131b2b4bb32b91034b6b83632b6b2b73a32b960711b602082015260400192915050565b60006117b6601c83611fe7565b7f4552433732313a20746f6b656e20616c7265616479206d696e74656400000000815260200192915050565b60006117ef600383610274565b6204010960e91b815260030192915050565b600061180e602483611fe7565b7f4552433732313a207472616e7366657220746f20746865207a65726f206164648152637265737360e01b602082015260400192915050565b6000611854601983611fe7565b7f4552433732313a20617070726f766520746f2063616c6c657200000000000000815260200192915050565b600061188d602c83611fe7565b7f4552433732313a206f70657261746f7220717565727920666f72206e6f6e657881526b34b9ba32b73a103a37b5b2b760a11b602082015260400192915050565b60006118db600783610274565b66697066733a2f2f60c81b815260070192915050565b60006118fe601083611fe7565b6f1d1bdad95b881b5d5cdd08195e1a5cdd60821b815260200192915050565b600061192a600283610274565b609160f51b815260020192915050565b6000611947603883611fe7565b7f4552433732313a20617070726f76652063616c6c6572206973206e6f74206f7781527f6e6572206e6f7220617070726f76656420666f7220616c6c0000000000000000602082015260400192915050565b60006119a6600c83610274565b6b3d9131b430b4b724b2111d1160a11b8152600c0192915050565b60006119ce602a83611fe7565b7f4552433732313a2062616c616e636520717565727920666f7220746865207a65815269726f206164647265737360b01b602082015260400192915050565b6000611a1a602983611fe7565b7f4552433732313a206f776e657220717565727920666f72206e6f6e657869737481526832b73a103a37b5b2b760b91b602082015260400192915050565b6000611a65600283610274565b61227d60f01b815260020192915050565b6000611a83602083611fe7565b7f4552433732313a206d696e7420746f20746865207a65726f2061646472657373815260200192915050565b6000611abc602c83611fe7565b7f4552433732313a20617070726f76656420717565727920666f72206e6f6e657881526b34b9ba32b73a103a37b5b2b760a11b602082015260400192915050565b6000611b0a601583610274565b7411161131b7b73a3930b1ba20b2323932b9b9911d1160591b815260150192915050565b6000611b3b600d83610274565b6c1116113a37b5b2b724b2111d1160991b8152600d0192915050565b6000611b64602983611fe7565b7f4552433732313a207472616e73666572206f6620746f6b656e2074686174206981526839903737ba1037bbb760b91b602082015260400192915050565b6000611baf600983610274565b6811161134b9b9911d1160b91b815260090192915050565b6000611bd4602183611fe7565b7f4552433732313a20617070726f76616c20746f2063757272656e74206f776e658152603960f91b602082015260400192915050565b6000611c17603183611fe7565b7f4552433732313a207472616e736665722063616c6c6572206973206e6f74206f8152701ddb995c881b9bdc88185c1c1c9bdd9959607a1b602082015260400192915050565b6000611c6a600183610274565b600360fb1b815260010192915050565b6000611c868284611650565b50601401919050565b6000610cd482846116bc565b6000611ca782856116bc565b915061085682846116bc565b6000611cbe826116eb565b9150611cca82876116bc565b9150611cd5826117e2565b9150611ce182866116bc565b9150611ced82856116bc565b9150611cf882611c5d565b9150611d0482846116bc565b9695505050505050565b6000611d19826118ce565b9150610cd482846116bc565b6000611d308261191d565b9150611d3c8284611673565b50602001919050565b6000611d5082611999565b9150611d5c82896116bc565b9150611d6782611afd565b9150611d7382886116bc565b9150611d7e82611b2e565b9150611d8a82876116bc565b9150611d958261172f565b9150611da182866116bc565b9150611dac82611708565b9150611db882856116bc565b9150611dc382611ba2565b9150611dcf82846116bc565b9150611dda82611a58565b98975050505050505050565b6000611df28288611673565b602082019150611e028287611650565b601482019150611e128286611673565b602082019150611e228285611673565b602082019150611e328284611650565b5060140195945050505050565b602081016104498284611641565b60808101611e5b8287611641565b611e686020830186611641565b611e75604083018561166a565b8181036060830152611d048184611684565b602081016104498284611661565b60208101610449828461166a565b60208082528101610cd48184611684565b6020808252810161044981611755565b60208082528101610449816117a9565b6020808252810161044981611801565b6020808252810161044981611847565b6020808252810161044981611880565b60208082528101610449816118f1565b602080825281016104498161193a565b60208082528101610449816119c1565b6020808252810161044981611a0d565b6020808252810161044981611a76565b6020808252810161044981611aaf565b6020808252810161044981611b57565b6020808252810161044981611bc7565b6020808252810161044981611c0a565b60405181810167ffffffffffffffff81118282101715611fb357600080fd5b604052919050565b600067ffffffffffffffff821115611fd257600080fd5b506020601f91909101601f19160190565b5190565b90815260200190565b600061044982612010565b151590565b90565b6001600160e01b03191690565b6001600160a01b031690565b82818337506000910152565b60005b8381101561204357818101518382015260200161202b565b8381111561059f5750506000910152565b60006104498260006104498261206f565b601f01601f191690565b60601b90565b61207e81611ff0565b8114610e9157600080fd5b61207e81611ffb565b61207e81612000565b61207e8161200356fe31323334353637383941424344454647484a4b4c4d4e505152535455565758595a6162636465666768696a6b6d6e6f707172737475767778797aa365627a7a72315820f828a5b161d450cc2ef9d3f4c298b871a3a255637f899d17c15ff62335beefea6c6578706572696d656e74616cf564736f6c63430005110040",
  "linkReferences": {},
  "deployedLinkReferences": {}
}