{
  "_format": "hh-sol-artifact-1",
  "contractName": "Chocomint",
  "sourceName": "contracts/Chocomint.sol",
  "abi": [
    {
      "anonymous": false,
      "inputs": [
        {
          "indexed": true,
          "internalType": "address",
          "name": "_owner",
          "type": "address"
        },
        {
          "indexed": true,
          "internalType": "address",
          "name": "_approved",
          "type": "address"
        },
        {
          "indexed": true,
          "internalType": "uint256",
          "name": "_tokenId",
          "type": "uint256"
        }
      ],
      "name": "Approval",
      "type": "event"
    },
    {
      "anonymous": false,
      "inputs": [
        {
          "indexed": true,
          "internalType": "address",
          "name": "_owner",
          "type": "address"
        },
        {
          "indexed": true,
          "internalType": "address",
          "name": "_operator",
          "type": "address"
        },
        {
          "indexed": false,
          "internalType": "bool",
          "name": "_approved",
          "type": "bool"
        }
      ],
      "name": "ApprovalForAll",
      "type": "event"
    },
    {
      "anonymous": false,
      "inputs": [
        {
          "indexed": true,
          "internalType": "address",
          "name": "_from",
          "type": "address"
        },
        {
          "indexed": true,
          "internalType": "address",
          "name": "_to",
          "type": "address"
        },
        {
          "indexed": true,
          "internalType": "uint256",
          "name": "_tokenId",
          "type": "uint256"
        }
      ],
      "name": "Transfer",
      "type": "event"
    },
    {
      "constant": false,
      "inputs": [
        {
          "internalType": "address",
          "name": "_approved",
          "type": "address"
        },
        {
          "internalType": "uint256",
          "name": "_tokenId",
          "type": "uint256"
        }
      ],
      "name": "approve",
      "outputs": [],
      "payable": false,
      "stateMutability": "nonpayable",
      "type": "function"
    },
    {
      "constant": true,
      "inputs": [
        {
          "internalType": "address",
          "name": "_owner",
          "type": "address"
        }
      ],
      "name": "balanceOf",
      "outputs": [
        {
          "internalType": "uint256",
          "name": "",
          "type": "uint256"
        }
      ],
      "payable": false,
      "stateMutability": "view",
      "type": "function"
    },
    {
      "constant": false,
      "inputs": [
        {
          "internalType": "uint256",
          "name": "tokenId",
          "type": "uint256"
        }
      ],
      "name": "burn",
      "outputs": [],
      "payable": true,
      "stateMutability": "payable",
      "type": "function"
    },
    {
      "constant": true,
      "inputs": [
        {
          "internalType": "uint256",
          "name": "",
          "type": "uint256"
        }
      ],
      "name": "chocos",
      "outputs": [
        {
          "internalType": "string",
          "name": "name",
          "type": "string"
        },
        {
          "internalType": "string",
          "name": "description",
          "type": "string"
        },
        {
          "internalType": "string",
          "name": "image",
          "type": "string"
        },
        {
          "internalType": "string",
          "name": "blank",
          "type": "string"
        },
        {
          "internalType": "uint256",
          "name": "initialPrice",
          "type": "uint256"
        },
        {
          "internalType": "address payable",
          "name": "iss",
          "type": "address"
        },
        {
          "internalType": "address",
          "name": "sub",
          "type": "address"
        },
        {
          "internalType": "bytes32",
          "name": "root",
          "type": "bytes32"
        },
        {
          "internalType": "bytes",
          "name": "signature",
          "type": "bytes"
        }
      ],
      "payable": false,
      "stateMutability": "view",
      "type": "function"
    },
    {
      "constant": true,
      "inputs": [
        {
          "internalType": "uint256",
          "name": "_tokenId",
          "type": "uint256"
        }
      ],
      "name": "getApproved",
      "outputs": [
        {
          "internalType": "address",
          "name": "",
          "type": "address"
        }
      ],
      "payable": false,
      "stateMutability": "view",
      "type": "function"
    },
    {
      "constant": true,
      "inputs": [],
      "name": "getChainID",
      "outputs": [
        {
          "internalType": "uint256",
          "name": "",
          "type": "uint256"
        }
      ],
      "payable": false,
      "stateMutability": "pure",
      "type": "function"
    },
    {
      "constant": true,
      "inputs": [
        {
          "internalType": "address",
          "name": "_owner",
          "type": "address"
        },
        {
          "internalType": "address",
          "name": "_operator",
          "type": "address"
        }
      ],
      "name": "isApprovedForAll",
      "outputs": [
        {
          "internalType": "bool",
          "name": "",
          "type": "bool"
        }
      ],
      "payable": false,
      "stateMutability": "view",
      "type": "function"
    },
    {
      "constant": false,
      "inputs": [
        {
          "components": [
            {
              "internalType": "string",
              "name": "name",
              "type": "string"
            },
            {
              "internalType": "string",
              "name": "description",
              "type": "string"
            },
            {
              "internalType": "string",
              "name": "image",
              "type": "string"
            },
            {
              "internalType": "string",
              "name": "blank",
              "type": "string"
            },
            {
              "internalType": "uint256",
              "name": "initialPrice",
              "type": "uint256"
            },
            {
              "internalType": "uint256[]",
              "name": "fees",
              "type": "uint256[]"
            },
            {
              "internalType": "address[]",
              "name": "recipients",
              "type": "address[]"
            },
            {
              "internalType": "address payable",
              "name": "iss",
              "type": "address"
            },
            {
              "internalType": "address",
              "name": "sub",
              "type": "address"
            },
            {
              "internalType": "bytes32",
              "name": "root",
              "type": "bytes32"
            },
            {
              "internalType": "bytes32[]",
              "name": "proof",
              "type": "bytes32[]"
            },
            {
              "internalType": "bytes",
              "name": "signature",
              "type": "bytes"
            }
          ],
          "internalType": "struct Chocomint.Choco",
          "name": "choco",
          "type": "tuple"
        }
      ],
      "name": "mint",
      "outputs": [],
      "payable": true,
      "stateMutability": "payable",
      "type": "function"
    },
    {
      "constant": true,
      "inputs": [],
      "name": "name",
      "outputs": [
        {
          "internalType": "string",
          "name": "",
          "type": "string"
        }
      ],
      "payable": false,
      "stateMutability": "view",
      "type": "function"
    },
    {
      "constant": true,
      "inputs": [
        {
          "internalType": "uint256",
          "name": "_tokenId",
          "type": "uint256"
        }
      ],
      "name": "ownerOf",
      "outputs": [
        {
          "internalType": "address",
          "name": "",
          "type": "address"
        }
      ],
      "payable": false,
      "stateMutability": "view",
      "type": "function"
    },
    {
      "constant": false,
      "inputs": [
        {
          "internalType": "address",
          "name": "_from",
          "type": "address"
        },
        {
          "internalType": "address",
          "name": "_to",
          "type": "address"
        },
        {
          "internalType": "uint256",
          "name": "_tokenId",
          "type": "uint256"
        }
      ],
      "name": "safeTransferFrom",
      "outputs": [],
      "payable": false,
      "stateMutability": "nonpayable",
      "type": "function"
    },
    {
      "constant": false,
      "inputs": [
        {
          "internalType": "address",
          "name": "_from",
          "type": "address"
        },
        {
          "internalType": "address",
          "name": "_to",
          "type": "address"
        },
        {
          "internalType": "uint256",
          "name": "_tokenId",
          "type": "uint256"
        },
        {
          "internalType": "bytes",
          "name": "_data",
          "type": "bytes"
        }
      ],
      "name": "safeTransferFrom",
      "outputs": [],
      "payable": false,
      "stateMutability": "nonpayable",
      "type": "function"
    },
    {
      "constant": false,
      "inputs": [
        {
          "internalType": "address",
          "name": "_operator",
          "type": "address"
        },
        {
          "internalType": "bool",
          "name": "_approved",
          "type": "bool"
        }
      ],
      "name": "setApprovalForAll",
      "outputs": [],
      "payable": false,
      "stateMutability": "nonpayable",
      "type": "function"
    },
    {
      "constant": true,
      "inputs": [],
      "name": "symbol",
      "outputs": [
        {
          "internalType": "string",
          "name": "",
          "type": "string"
        }
      ],
      "payable": false,
      "stateMutability": "view",
      "type": "function"
    },
    {
      "constant": true,
      "inputs": [
        {
          "internalType": "uint256",
          "name": "tokenId",
          "type": "uint256"
        }
      ],
      "name": "tokenURI",
      "outputs": [
        {
          "internalType": "string",
          "name": "",
          "type": "string"
        }
      ],
      "payable": false,
      "stateMutability": "view",
      "type": "function"
    },
    {
      "constant": false,
      "inputs": [
        {
          "internalType": "address",
          "name": "_from",
          "type": "address"
        },
        {
          "internalType": "address",
          "name": "_to",
          "type": "address"
        },
        {
          "internalType": "uint256",
          "name": "_tokenId",
          "type": "uint256"
        }
      ],
      "name": "transferFrom",
      "outputs": [],
      "payable": false,
      "stateMutability": "nonpayable",
      "type": "function"
    }
  ],
  "bytecode": "0x60806040526040518060400160405280600981526020017f43686f636f6d696e7400000000000000000000000000000000000000000000008152506005908051906020019062000051929190620000b4565b506040518060400160405280600281526020017f434d000000000000000000000000000000000000000000000000000000000000815250600690805190602001906200009f929190620000b4565b50348015620000ad57600080fd5b5062000163565b828054600181600116156101000203166002900490600052602060002090601f016020900481019282601f10620000f757805160ff191683800117855562000128565b8280016001018555821562000128579182015b82811115620001275782518255916020019190600101906200010a565b5b5090506200013791906200013b565b5090565b6200016091905b808211156200015c57600081600090555060010162000142565b5090565b90565b61596f80620001736000396000f3fe6080604052600436106100f35760003560e01c806370a082311161008a578063c7b3249311610059578063c7b3249314610319578063c87b56dd14610335578063e985e9c514610372578063ea0a7a93146103af576100f3565b806370a082311461025f57806395d89b411461029c578063a22cb465146102c7578063b88d4fde146102f0576100f3565b806342842e0e116100c657806342842e0e146101b257806342966c68146101db578063564b81ef146101f75780636352211e14610222576100f3565b806306fdde03146100f8578063081812fc14610123578063095ea7b31461016057806323b872dd14610189575b600080fd5b34801561010457600080fd5b5061010d6103f4565b60405161011a9190615203565b60405180910390f35b34801561012f57600080fd5b5061014a60048036036101459190810190613ecd565b610492565b60405161015791906150b9565b60405180910390f35b34801561016c57600080fd5b5061018760048036036101829190810190613dfe565b6104cf565b005b34801561019557600080fd5b506101b060048036036101ab9190810190613cf3565b61060d565b005b3480156101be57600080fd5b506101d960048036036101d49190810190613cf3565b610a27565b005b6101f560048036036101f09190810190613ecd565b610b6f565b005b34801561020357600080fd5b5061020c610b7c565b60405161021991906154d7565b60405180910390f35b34801561022e57600080fd5b5061024960048036036102449190810190613ecd565b610b89565b60405161025691906150b9565b60405180910390f35b34801561026b57600080fd5b5061028660048036036102819190810190613c8e565b610c3a565b60405161029391906154d7565b60405180910390f35b3480156102a857600080fd5b506102b1610cf2565b6040516102be9190615203565b60405180910390f35b3480156102d357600080fd5b506102ee60048036036102e99190810190613dc2565b610d90565b005b3480156102fc57600080fd5b5061031760048036036103129190810190613d42565b610e8d565b005b610333600480360361032e9190810190613e8c565b610fdb565b005b34801561034157600080fd5b5061035c60048036036103579190810190613ecd565b6115bd565b6040516103699190615225565b60405180910390f35b34801561037e57600080fd5b5061039960048036036103949190810190613cb7565b611d71565b6040516103a6919061516c565b60405180910390f35b3480156103bb57600080fd5b506103d660048036036103d19190810190613ecd565b611e05565b6040516103eb99989796959493929190615247565b60405180910390f35b60058054600181600116156101000203166002900480601f01602080910402602001604051908101604052809291908181526020018280546001816001161561010002031660029004801561048a5780601f1061045f5761010080835404028352916020019161048a565b820191906000526020600020905b81548152906001019060200180831161046d57829003601f168201915b505050505081565b60006001600083815260200190815260200160002060009054906101000a900473ffffffffffffffffffffffffffffffffffffffff169050919050565b60006104da82610b89565b90508073ffffffffffffffffffffffffffffffffffffffff163373ffffffffffffffffffffffffffffffffffffffff16148061051c575061051b8133611d71565b5b61055b576040517f08c379a0000000000000000000000000000000000000000000000000000000008152600401610552906154b7565b60405180910390fd5b826001600084815260200190815260200160002060006101000a81548173ffffffffffffffffffffffffffffffffffffffff021916908373ffffffffffffffffffffffffffffffffffffffff160217905550818373ffffffffffffffffffffffffffffffffffffffff168273ffffffffffffffffffffffffffffffffffffffff167f8c5be1e5ebec7d5bd14f71427d1e84f3dd0314c0f7b2291e5b200ac8c7c3b92560405160405180910390a4505050565b600073ffffffffffffffffffffffffffffffffffffffff168273ffffffffffffffffffffffffffffffffffffffff16141561067d576040517f08c379a000000000000000000000000000000000000000000000000000000000815260040161067490615457565b60405180910390fd5b600061068882610b89565b90508073ffffffffffffffffffffffffffffffffffffffff168473ffffffffffffffffffffffffffffffffffffffff16146106f8576040517f08c379a00000000000000000000000000000000000000000000000000000000081526004016106ef906152f7565b60405180910390fd5b6000339050600061070884610492565b90508273ffffffffffffffffffffffffffffffffffffffff168273ffffffffffffffffffffffffffffffffffffffff16148061074a57506107498383611d71565b5b8061078057508173ffffffffffffffffffffffffffffffffffffffff168173ffffffffffffffffffffffffffffffffffffffff16145b6107bf576040517f08c379a00000000000000000000000000000000000000000000000000000000081526004016107b690615417565b60405180910390fd5b600073ffffffffffffffffffffffffffffffffffffffff168173ffffffffffffffffffffffffffffffffffffffff16146108475760006001600086815260200190815260200160002060006101000a81548173ffffffffffffffffffffffffffffffffffffffff021916908373ffffffffffffffffffffffffffffffffffffffff1602179055505b8460008086815260200190815260200160002060006101000a81548173ffffffffffffffffffffffffffffffffffffffff021916908373ffffffffffffffffffffffffffffffffffffffff1602179055506108eb6001600260008973ffffffffffffffffffffffffffffffffffffffff1673ffffffffffffffffffffffffffffffffffffffff1681526020019081526020016000205461218b90919063ffffffff16565b600260008873ffffffffffffffffffffffffffffffffffffffff1673ffffffffffffffffffffffffffffffffffffffff168152602001908152602001600020819055506109816001600260008873ffffffffffffffffffffffffffffffffffffffff1673ffffffffffffffffffffffffffffffffffffffff168152602001908152602001600020546121b590919063ffffffff16565b600260008773ffffffffffffffffffffffffffffffffffffffff1673ffffffffffffffffffffffffffffffffffffffff16815260200190815260200160002081905550838573ffffffffffffffffffffffffffffffffffffffff168773ffffffffffffffffffffffffffffffffffffffff167fddf252ad1be2c89b69c2b068fc378daa952ba7f163c4a11628f55a4df523b3ef60405160405180910390a4505050505050565b610a3283838361060d565b6000823b90506000811115610b695760008373ffffffffffffffffffffffffffffffffffffffff1663150b7a023387866040518463ffffffff1660e01b8152600401610a8093929190615122565b602060405180830381600087803b158015610a9a57600080fd5b505af1158015610aae573d6000803e3d6000fd5b505050506040513d601f19601f82011682018060405250610ad29190810190613e63565b9050604051610ae090614de8565b60405180910390207bffffffffffffffffffffffffffffffffffffffffffffffffffffffff1916817bffffffffffffffffffffffffffffffffffffffffffffffffffffffff191614610b67576040517f08c379a0000000000000000000000000000000000000000000000000000000008152600401610b5e906153d7565b60405180910390fd5b505b50505050565b610b7933826121e4565b50565b6000804690508091505090565b60008060008084815260200190815260200160002060009054906101000a900473ffffffffffffffffffffffffffffffffffffffff169050600073ffffffffffffffffffffffffffffffffffffffff168173ffffffffffffffffffffffffffffffffffffffff161415610c31576040517f08c379a0000000000000000000000000000000000000000000000000000000008152600401610c2890615337565b60405180910390fd5b80915050919050565b60008073ffffffffffffffffffffffffffffffffffffffff168273ffffffffffffffffffffffffffffffffffffffff161415610cab576040517f08c379a0000000000000000000000000000000000000000000000000000000008152600401610ca290615337565b60405180910390fd5b600260008373ffffffffffffffffffffffffffffffffffffffff1673ffffffffffffffffffffffffffffffffffffffff168152602001908152602001600020549050919050565b60068054600181600116156101000203166002900480601f016020809104026020016040519081016040528092919081815260200182805460018160011615610100020316600290048015610d885780601f10610d5d57610100808354040283529160200191610d88565b820191906000526020600020905b815481529060010190602001808311610d6b57829003601f168201915b505050505081565b80600360003373ffffffffffffffffffffffffffffffffffffffff1673ffffffffffffffffffffffffffffffffffffffff16815260200190815260200160002060008473ffffffffffffffffffffffffffffffffffffffff1673ffffffffffffffffffffffffffffffffffffffff16815260200190815260200160002060006101000a81548160ff0219169083151502179055508173ffffffffffffffffffffffffffffffffffffffff163373ffffffffffffffffffffffffffffffffffffffff167f17307eab39ab6107e8899845ad3d59bd9653f200f220920489ca2b5937696c3183604051610e81919061516c565b60405180910390a35050565b610e9885858561060d565b6000843b90506000811115610fd35760008573ffffffffffffffffffffffffffffffffffffffff1663150b7a0233898888886040518663ffffffff1660e01b8152600401610eea9594939291906150d4565b602060405180830381600087803b158015610f0457600080fd5b505af1158015610f18573d6000803e3d6000fd5b505050506040513d601f19601f82011682018060405250610f3c9190810190613e63565b9050604051610f4a90614de8565b60405180910390207bffffffffffffffffffffffffffffffffffffffffffffffffffffffff1916817bffffffffffffffffffffffffffffffffffffffffffffffffffffffff191614610fd1576040517f08c379a0000000000000000000000000000000000000000000000000000000008152600401610fc8906153d7565b60405180910390fd5b505b505050505050565b80608001513414611021576040517f08c379a000000000000000000000000000000000000000000000000000000000815260040161101890615497565b60405180910390fd5b8060c00151518160a0015151111561106e576040517f08c379a000000000000000000000000000000000000000000000000000000000815260040161106590615477565b60405180910390fd5b60008090505b8160a00151518110156111705760008260a00151828151811061109357fe5b602002602001015114156110dc576040517f08c379a00000000000000000000000000000000000000000000000000000000081526004016110d390615317565b60405180910390fd5b600073ffffffffffffffffffffffffffffffffffffffff168260c00151828151811061110457fe5b602002602001015173ffffffffffffffffffffffffffffffffffffffff161415611163576040517f08c379a000000000000000000000000000000000000000000000000000000000815260040161115a90615357565b60405180910390fd5b8080600101915050611074565b50600073ffffffffffffffffffffffffffffffffffffffff1681610100015173ffffffffffffffffffffffffffffffffffffffff161461121e5780610100015173ffffffffffffffffffffffffffffffffffffffff163373ffffffffffffffffffffffffffffffffffffffff161461121d576040517f08c379a0000000000000000000000000000000000000000000000000000000008152600401611214906153b7565b60405180910390fd5b5b6000611228610b7c565b30836000015184602001518560400151866060015187608001518860a001518960c001518a60e001518b61010001516040516020016112719b9a9998979695949392919061500c565b60405160208183030381529060405280519060200120905060006112a083610140015184610120015184612442565b9050806112e2576040517f08c379a00000000000000000000000000000000000000000000000000000000081526004016112d990615437565b60405180910390fd5b60006112f28461012001516124ee565b9050600061130e8561016001518361251e90919063ffffffff16565b90508460e0015173ffffffffffffffffffffffffffffffffffffffff168173ffffffffffffffffffffffffffffffffffffffff1614611382576040517f08c379a000000000000000000000000000000000000000000000000000000000815260040161137990615377565b60405180910390fd5b60008486610120015160405160200161139c929190614c90565b6040516020818303038152906040528051906020012060001c9050856004600083815260200190815260200160002060008201518160000190805190602001906113e7929190613461565b506020820151816001019080519060200190611404929190613461565b506040820151816002019080519060200190611421929190613461565b50606082015181600301908051906020019061143e929190613461565b506080820151816004015560a08201518160050190805190602001906114659291906134e1565b5060c082015181600601908051906020019061148292919061352e565b5060e08201518160070160006101000a81548173ffffffffffffffffffffffffffffffffffffffff021916908373ffffffffffffffffffffffffffffffffffffffff1602179055506101008201518160080160006101000a81548173ffffffffffffffffffffffffffffffffffffffff021916908373ffffffffffffffffffffffffffffffffffffffff160217905550610120820151816009015561014082015181600a01908051906020019061153a9291906135b8565b5061016082015181600b019080519060200190611558929190613605565b50905050611566338261260a565b8560e0015173ffffffffffffffffffffffffffffffffffffffff166108fc87608001519081150290604051600060405180830381858888f193505050501580156115b4573d6000803e3d6000fd5b50505050505050565b60606115c7613685565b6004600084815260200190815260200160002060405180610180016040529081600082018054600181600116156101000203166002900480601f01602080910402602001604051908101604052809291908181526020018280546001816001161561010002031660029004801561167f5780601f106116545761010080835404028352916020019161167f565b820191906000526020600020905b81548152906001019060200180831161166257829003601f168201915b50505050508152602001600182018054600181600116156101000203166002900480601f0160208091040260200160405190810160405280929190818152602001828054600181600116156101000203166002900480156117215780601f106116f657610100808354040283529160200191611721565b820191906000526020600020905b81548152906001019060200180831161170457829003601f168201915b50505050508152602001600282018054600181600116156101000203166002900480601f0160208091040260200160405190810160405280929190818152602001828054600181600116156101000203166002900480156117c35780601f10611798576101008083540402835291602001916117c3565b820191906000526020600020905b8154815290600101906020018083116117a657829003601f168201915b50505050508152602001600382018054600181600116156101000203166002900480601f0160208091040260200160405190810160405280929190818152602001828054600181600116156101000203166002900480156118655780601f1061183a57610100808354040283529160200191611865565b820191906000526020600020905b81548152906001019060200180831161184857829003601f168201915b5050505050815260200160048201548152602001600582018054806020026020016040519081016040528092919081815260200182805480156118c757602002820191906000526020600020905b8154815260200190600101908083116118b3575b505050505081526020016006820180548060200260200160405190810160405280929190818152602001828054801561195557602002820191906000526020600020905b8160009054906101000a900473ffffffffffffffffffffffffffffffffffffffff1673ffffffffffffffffffffffffffffffffffffffff168152602001906001019080831161190b575b505050505081526020016007820160009054906101000a900473ffffffffffffffffffffffffffffffffffffffff1673ffffffffffffffffffffffffffffffffffffffff1673ffffffffffffffffffffffffffffffffffffffff1681526020016008820160009054906101000a900473ffffffffffffffffffffffffffffffffffffffff1673ffffffffffffffffffffffffffffffffffffffff1673ffffffffffffffffffffffffffffffffffffffff16815260200160098201548152602001600a8201805480602002602001604051908101604052809291908181526020018280548015611a6357602002820191906000526020600020905b815481526020019060010190808311611a4f575b50505050508152602001600b82018054600181600116156101000203166002900480601f016020809104026020016040519081016040528092919081815260200182805460018160011615610100020316600290048015611b055780601f10611ada57610100808354040283529160200191611b05565b820191906000526020600020905b815481529060010190602001808311611ae857829003601f168201915b50505050508152505090506060806060806060611b28611b23610b7c565b612868565b611b5030604051602001611b3c9190614c3f565b60405160208183030381529060405261298b565b611b598a612868565b604051602001611b6b93929190614f23565b60405160208183030381529060405294508560000151866020015187604001518860600151604051602001611ba39493929190614e23565b6040516020818303038152906040529350611bc18660800151612868565b611bce8760a00151612bfa565b604051602001611bdf929190614fd2565b6040516020818303038152906040529250611bfd8660c00151612cb4565b611c298760e00151604051602001611c159190614c5a565b60405160208183030381529060405261298b565b611c56886101000151604051602001611c429190614c3f565b60405160208183030381529060405261298b565b604051602001611c6893929190614e8d565b6040516020818303038152906040529150611ca6866101200151604051602001611c929190614c75565b60405160208183030381529060405261298b565b611cb4876101400151612d8d565b611cc288610160015161298b565b604051602001611cd493929190614f75565b6040516020818303038152906040529050611d158585858585604051602001611d01959493929190614cf7565b604051602081830303815290604052612e66565b611d458585858585604051602001611d31959493929190614cf7565b604051602081830303815290604052612eff565b604051602001611d559190614f01565b6040516020818303038152906040529650505050505050919050565b6000600360008473ffffffffffffffffffffffffffffffffffffffff1673ffffffffffffffffffffffffffffffffffffffff16815260200190815260200160002060008373ffffffffffffffffffffffffffffffffffffffff1673ffffffffffffffffffffffffffffffffffffffff16815260200190815260200160002060009054906101000a900460ff16905092915050565b6004602052806000526040600020600091509050806000018054600181600116156101000203166002900480601f016020809104026020016040519081016040528092919081815260200182805460018160011615610100020316600290048015611eb15780601f10611e8657610100808354040283529160200191611eb1565b820191906000526020600020905b815481529060010190602001808311611e9457829003601f168201915b505050505090806001018054600181600116156101000203166002900480601f016020809104026020016040519081016040528092919081815260200182805460018160011615610100020316600290048015611f4f5780601f10611f2457610100808354040283529160200191611f4f565b820191906000526020600020905b815481529060010190602001808311611f3257829003601f168201915b505050505090806002018054600181600116156101000203166002900480601f016020809104026020016040519081016040528092919081815260200182805460018160011615610100020316600290048015611fed5780601f10611fc257610100808354040283529160200191611fed565b820191906000526020600020905b815481529060010190602001808311611fd057829003601f168201915b505050505090806003018054600181600116156101000203166002900480601f01602080910402602001604051908101604052809291908181526020018280546001816001161561010002031660029004801561208b5780601f106120605761010080835404028352916020019161208b565b820191906000526020600020905b81548152906001019060200180831161206e57829003601f168201915b5050505050908060040154908060070160009054906101000a900473ffffffffffffffffffffffffffffffffffffffff16908060080160009054906101000a900473ffffffffffffffffffffffffffffffffffffffff169080600901549080600b018054600181600116156101000203166002900480601f0160208091040260200160405190810160405280929190818152602001828054600181600116156101000203166002900480156121815780601f1061215657610100808354040283529160200191612181565b820191906000526020600020905b81548152906001019060200180831161216457829003601f168201915b5050505050905089565b6000828211156121aa576121a96121a460028585613231565b6132b6565b5b818303905092915050565b6000808284019050838110156121da576121d96121d460008686613231565b6132b6565b5b8091505092915050565b600073ffffffffffffffffffffffffffffffffffffffff168273ffffffffffffffffffffffffffffffffffffffff161415612254576040517f08c379a000000000000000000000000000000000000000000000000000000000815260040161224b90615397565b60405180910390fd5b600080600083815260200190815260200160002060009054906101000a900473ffffffffffffffffffffffffffffffffffffffff1690508273ffffffffffffffffffffffffffffffffffffffff168173ffffffffffffffffffffffffffffffffffffffff16146122f9576040517f08c379a00000000000000000000000000000000000000000000000000000000081526004016122f0906152f7565b60405180910390fd5b600080600084815260200190815260200160002060006101000a81548173ffffffffffffffffffffffffffffffffffffffff021916908373ffffffffffffffffffffffffffffffffffffffff16021790555061239e6001600260008673ffffffffffffffffffffffffffffffffffffffff1673ffffffffffffffffffffffffffffffffffffffff1681526020019081526020016000205461218b90919063ffffffff16565b600260008573ffffffffffffffffffffffffffffffffffffffff1673ffffffffffffffffffffffffffffffffffffffff1681526020019081526020016000208190555081600073ffffffffffffffffffffffffffffffffffffffff168473ffffffffffffffffffffffffffffffffffffffff167fddf252ad1be2c89b69c2b068fc378daa952ba7f163c4a11628f55a4df523b3ef60405160405180910390a4505050565b60008082905060008090505b85518110156124e057600086828151811061246557fe5b602002602001015190508083116124a6578281604051602001612489929190614c90565b6040516020818303038152906040528051906020012092506124d2565b80836040516020016124b9929190614c90565b6040516020818303038152906040528051906020012092505b50808060010191505061244e565b508381149150509392505050565b6000816040516020016125019190614dfd565b604051602081830303815290604052805190602001209050919050565b600060418251146125325760009050612604565b60008060006020850151925060408501519150606085015160001a90507f7fffffffffffffffffffffffffffffff5d576e7357a4501ddfe92f46681b20a08260001c11156125865760009350505050612604565b601b8160ff161415801561259e5750601c8160ff1614155b156125af5760009350505050612604565b600186828585604051600081526020016040526040516125d29493929190615187565b6020604051602081039080840390855afa1580156125f4573d6000803e3d6000fd5b5050506020604051035193505050505b92915050565b600073ffffffffffffffffffffffffffffffffffffffff168273ffffffffffffffffffffffffffffffffffffffff16141561267a576040517f08c379a000000000000000000000000000000000000000000000000000000000815260040161267190615457565b60405180910390fd5b600080600083815260200190815260200160002060009054906101000a900473ffffffffffffffffffffffffffffffffffffffff169050600073ffffffffffffffffffffffffffffffffffffffff168173ffffffffffffffffffffffffffffffffffffffff1614612720576040517f08c379a0000000000000000000000000000000000000000000000000000000008152600401612717906153f7565b60405180910390fd5b8260008084815260200190815260200160002060006101000a81548173ffffffffffffffffffffffffffffffffffffffff021916908373ffffffffffffffffffffffffffffffffffffffff1602179055506127c46001600260008673ffffffffffffffffffffffffffffffffffffffff1673ffffffffffffffffffffffffffffffffffffffff168152602001908152602001600020546121b590919063ffffffff16565b600260008573ffffffffffffffffffffffffffffffffffffffff1673ffffffffffffffffffffffffffffffffffffffff16815260200190815260200160002081905550818373ffffffffffffffffffffffffffffffffffffffff16600073ffffffffffffffffffffffffffffffffffffffff167fddf252ad1be2c89b69c2b068fc378daa952ba7f163c4a11628f55a4df523b3ef60405160405180910390a4505050565b606060008214156128b0576040518060400160405280600181526020017f30000000000000000000000000000000000000000000000000000000000000008152509050612986565b600082905060005b600082146128da578080600101915050600a82816128d257fe5b0491506128b8565b6060816040519080825280601f01601f19166020018201604052801561290f5781602001600182028038833980820191505090505b5090505b6000851461297f57600182039150600a858161292b57fe5b0660300160f81b81838151811061293e57fe5b60200101907effffffffffffffffffffffffffffffffffffffffffffffffffffffffffffff1916908160001a905350600a858161297757fe5b049450612913565b8093505050505b919050565b6060806040518060400160405280601081526020017f30313233343536373839616263646566000000000000000000000000000000008152509050606060028451026002016040519080825280601f01601f191660200182016040528015612a025781602001600182028038833980820191505090505b5090507f300000000000000000000000000000000000000000000000000000000000000081600081518110612a3357fe5b60200101907effffffffffffffffffffffffffffffffffffffffffffffffffffffffffffff1916908160001a9053507f780000000000000000000000000000000000000000000000000000000000000081600181518110612a9057fe5b60200101907effffffffffffffffffffffffffffffffffffffffffffffffffffffffffffff1916908160001a90535060008090505b8451811015612bef57826004868381518110612add57fe5b602001015160f81c60f81b7effffffffffffffffffffffffffffffffffffffffffffffffffffffffffffff1916901c60f81c60ff1681518110612b1c57fe5b602001015160f81c60f81b826002830260020181518110612b3957fe5b60200101907effffffffffffffffffffffffffffffffffffffffffffffffffffffffffffff1916908160001a90535082600f60f81b868381518110612b7a57fe5b602001015160f81c60f81b1660f81c60ff1681518110612b9657fe5b602001015160f81c60f81b826002830260030181518110612bb357fe5b60200101907effffffffffffffffffffffffffffffffffffffffffffffffffffffffffffff1916908160001a9053508080600101915050612ac5565b508092505050919050565b60608060005b8351811015612caa578160008211612c275760405180602001604052806000815250612c5e565b6040518060400160405280600181526020017f2c000000000000000000000000000000000000000000000000000000000000008152505b612c7a868481518110612c6d57fe5b6020026020010151612868565b604051602001612c8c93929190614d42565b60405160208183030381529060405291508080600101915050612c00565b5080915050919050565b60608060005b8351811015612d83578160008211612ce15760405180602001604052806000815250612d18565b6040518060400160405280600181526020017f2c000000000000000000000000000000000000000000000000000000000000008152505b612d53868481518110612d2757fe5b6020026020010151604051602001612d3f9190614c3f565b60405160208183030381529060405261298b565b604051602001612d6593929190614d42565b60405160208183030381529060405291508080600101915050612cba565b5080915050919050565b60608060005b8351811015612e5c578160008211612dba5760405180602001604052806000815250612df1565b6040518060400160405280600181526020017f2c000000000000000000000000000000000000000000000000000000000000008152505b612e2c868481518110612e0057fe5b6020026020010151604051602001612e189190614c75565b60405160208183030381529060405261298b565b604051602001612e3e93929190614d42565b60405160208183030381529060405291508080600101915050612d93565b5080915050919050565b612efc81604051602401612e7a9190615225565b6040516020818303038152906040527f41304fac000000000000000000000000000000000000000000000000000000007bffffffffffffffffffffffffffffffffffffffffffffffffffffffff19166020820180517bffffffffffffffffffffffffffffffffffffffffffffffffffffffff83818316178352505050506132be565b50565b6060806040518060600160405280603a81526020016158f3603a913990506060612f2984516132e7565b90506060612f4082516002026004875101016132e7565b90506060600282848886604051602001612f5d9493929190614d89565b604051602081830303815290604052604051612f799190614cbc565b602060405180830381855afa158015612f96573d6000803e3d6000fd5b5050506040513d601f19601f82011682018060405250612fb99190810190613e3a565b604051602001612fc99190614c75565b604051602081830303815290604052604051602001612fe89190614edf565b60405160208183030381529060405290506060602e60405190808252806020026020018201604052801561302b5781602001602082028038833980820191505090505b5090506060602e6040519080825280601f01601f1916602001820160405280156130645781602001600182028038833980820191505090505b50905060008260008151811061307657fe5b602002602001019060ff16908160ff168152505060006001905060008090505b84518110156131925760008582815181106130ad57fe5b602001015160f81c60f81b60f81c60ff16905060008090505b8360ff16811015613133576101008682815181106130e057fe5b602002602001015160ff160282019150603a82816130fa57fe5b0686828151811061310757fe5b602002602001019060ff16908160ff1681525050603a828161312557fe5b0491508060010190506130c6565b505b600081111561318657603a818161314857fe5b06858460ff168151811061315857fe5b602002602001019060ff16908160ff16815250508280600101935050603a818161317e57fe5b049050613135565b50806001019050613096565b5060008090505b8160ff16811015613221578784826001850360ff1603815181106131b957fe5b602002602001015160ff16815181106131ce57fe5b602001015160f81c60f81b8382815181106131e557fe5b60200101907effffffffffffffffffffffffffffffffffffffffffffffffffffffffffffff1916908160001a9053508080600101915050613199565b5081975050505050505050919050565b606063e946c1bb60e01b848484604051602401613250939291906151cc565b604051602081830303815290604052907bffffffffffffffffffffffffffffffffffffffffffffffffffffffff19166020820180517bffffffffffffffffffffffffffffffffffffffffffffffffffffffff838183161783525050505090509392505050565b805160208201fd5b60008151905060006a636f6e736f6c652e6c6f679050602083016000808483855afa5050505050565b60606080821015613302576132fb82613352565b905061334d565b613317608080848161331057fe5b0601613352565b61332a6080848161332457fe5b04613352565b60405160200161333b929190614cd3565b60405160208183030381529060405290505b919050565b606060008214156133995760006040519080825280601f01601f1916602001820160405280156133915781602001600182028038833980820191505090505b50905061345c565b600061010083816133a657fe5b0660f81b9050606060016040519080825280601f01601f1916602001820160405280156133e25781602001600182028038833980820191505090505b50905081816000815181106133f357fe5b60200101907effffffffffffffffffffffffffffffffffffffffffffffffffffffffffffff1916908160001a905350613436610100858161343057fe5b04613352565b81604051602001613448929190614cd3565b604051602081830303815290604052925050505b919050565b828054600181600116156101000203166002900490600052602060002090601f016020900481019282601f106134a257805160ff19168380011785556134d0565b828001600101855582156134d0579182015b828111156134cf5782518255916020019190600101906134b4565b5b5090506134dd9190613715565b5090565b82805482825590600052602060002090810192821561351d579160200282015b8281111561351c578251825591602001919060010190613501565b5b50905061352a9190613715565b5090565b8280548282559060005260206000209081019282156135a7579160200282015b828111156135a65782518260006101000a81548173ffffffffffffffffffffffffffffffffffffffff021916908373ffffffffffffffffffffffffffffffffffffffff1602179055509160200191906001019061354e565b5b5090506135b4919061373a565b5090565b8280548282559060005260206000209081019282156135f4579160200282015b828111156135f35782518255916020019190600101906135d8565b5b509050613601919061377d565b5090565b828054600181600116156101000203166002900490600052602060002090601f016020900481019282601f1061364657805160ff1916838001178555613674565b82800160010185558215613674579182015b82811115613673578251825591602001919060010190613658565b5b5090506136819190613715565b5090565b60405180610180016040528060608152602001606081526020016060815260200160608152602001600081526020016060815260200160608152602001600073ffffffffffffffffffffffffffffffffffffffff168152602001600073ffffffffffffffffffffffffffffffffffffffff1681526020016000801916815260200160608152602001606081525090565b61373791905b8082111561373357600081600090555060010161371b565b5090565b90565b61377a91905b8082111561377657600081816101000a81549073ffffffffffffffffffffffffffffffffffffffff021916905550600101613740565b5090565b90565b61379f91905b8082111561379b576000816000905550600101613783565b5090565b90565b6000813590506137b181615868565b92915050565b6000813590506137c68161587f565b92915050565b600082601f8301126137dd57600080fd5b81356137f06137eb8261551f565b6154f2565b9150818183526020840193506020810190508385602084028201111561381557600080fd5b60005b83811015613845578161382b88826137a2565b845260208401935060208301925050600181019050613818565b5050505092915050565b600082601f83011261386057600080fd5b813561387361386e82615547565b6154f2565b9150818183526020840193506020810190508385602084028201111561389857600080fd5b60005b838110156138c857816138ae888261396a565b84526020840193506020830192505060018101905061389b565b5050505092915050565b600082601f8301126138e357600080fd5b81356138f66138f18261556f565b6154f2565b9150818183526020840193506020810190508385602084028201111561391b57600080fd5b60005b8381101561394b57816139318882613c79565b84526020840193506020830192505060018101905061391e565b5050505092915050565b60008135905061396481615896565b92915050565b600081359050613979816158ad565b92915050565b60008151905061398e816158ad565b92915050565b6000815190506139a3816158c4565b92915050565b60008083601f8401126139bb57600080fd5b8235905067ffffffffffffffff8111156139d457600080fd5b6020830191508360018202830111156139ec57600080fd5b9250929050565b600082601f830112613a0457600080fd5b8135613a17613a1282615597565b6154f2565b91508082526020830160208301858383011115613a3357600080fd5b613a3e8382846157b1565b50505092915050565b600082601f830112613a5857600080fd5b8135613a6b613a66826155c3565b6154f2565b91508082526020830160208301858383011115613a8757600080fd5b613a928382846157b1565b50505092915050565b60006101808284031215613aae57600080fd5b613ab96101806154f2565b9050600082013567ffffffffffffffff811115613ad557600080fd5b613ae184828501613a47565b600083015250602082013567ffffffffffffffff811115613b0157600080fd5b613b0d84828501613a47565b602083015250604082013567ffffffffffffffff811115613b2d57600080fd5b613b3984828501613a47565b604083015250606082013567ffffffffffffffff811115613b5957600080fd5b613b6584828501613a47565b6060830152506080613b7984828501613c79565b60808301525060a082013567ffffffffffffffff811115613b9957600080fd5b613ba5848285016138d2565b60a08301525060c082013567ffffffffffffffff811115613bc557600080fd5b613bd1848285016137cc565b60c08301525060e0613be5848285016137b7565b60e083015250610100613bfa848285016137a2565b61010083015250610120613c108482850161396a565b6101208301525061014082013567ffffffffffffffff811115613c3257600080fd5b613c3e8482850161384f565b6101408301525061016082013567ffffffffffffffff811115613c6057600080fd5b613c6c848285016139f3565b6101608301525092915050565b600081359050613c88816158db565b92915050565b600060208284031215613ca057600080fd5b6000613cae848285016137a2565b91505092915050565b60008060408385031215613cca57600080fd5b6000613cd8858286016137a2565b9250506020613ce9858286016137a2565b9150509250929050565b600080600060608486031215613d0857600080fd5b6000613d16868287016137a2565b9350506020613d27868287016137a2565b9250506040613d3886828701613c79565b9150509250925092565b600080600080600060808688031215613d5a57600080fd5b6000613d68888289016137a2565b9550506020613d79888289016137a2565b9450506040613d8a88828901613c79565b935050606086013567ffffffffffffffff811115613da757600080fd5b613db3888289016139a9565b92509250509295509295909350565b60008060408385031215613dd557600080fd5b6000613de3858286016137a2565b9250506020613df485828601613955565b9150509250929050565b60008060408385031215613e1157600080fd5b6000613e1f858286016137a2565b9250506020613e3085828601613c79565b9150509250929050565b600060208284031215613e4c57600080fd5b6000613e5a8482850161397f565b91505092915050565b600060208284031215613e7557600080fd5b6000613e8384828501613994565b91505092915050565b600060208284031215613e9e57600080fd5b600082013567ffffffffffffffff811115613eb857600080fd5b613ec484828501613a9b565b91505092915050565b600060208284031215613edf57600080fd5b6000613eed84828501613c79565b91505092915050565b6000613f028383613f6a565b60208301905092915050565b6000613f1a8383614c0a565b60208301905092915050565b613f2f81615769565b82525050565b613f3e816156cb565b82525050565b613f55613f50826156cb565b615805565b82525050565b613f64816156b9565b82525050565b613f73816156b9565b82525050565b613f8a613f85826156b9565b6157f3565b82525050565b6000613f9b8261560f565b613fa5818561566b565b9350613fb0836155ef565b8060005b83811015613fe1578151613fc88882613ef6565b9750613fd383615651565b925050600181019050613fb4565b5085935050505092915050565b6000613ff98261561a565b6140038185615676565b935061400e836155ff565b8060005b8381101561403f5781516140268882613f0e565b97506140318361565e565b925050600181019050614012565b5085935050505092915050565b614055816156dd565b82525050565b614064816156e9565b82525050565b61407b614076826156e9565b615817565b82525050565b600061408d8385615681565b935061409a8385846157b1565b6140a38361583d565b840190509392505050565b60006140b982615630565b6140c38185615692565b93506140d38185602086016157c0565b80840191505092915050565b60006140ea82615625565b6140f48185615681565b93506141048185602086016157c0565b61410d8161583d565b840191505092915050565b6141218161577b565b82525050565b600061413282615646565b61413c818561569d565b935061414c8185602086016157c0565b6141558161583d565b840191505092915050565b600061416b82615646565b61417581856156ae565b93506141858185602086016157c0565b80840191505092915050565b600061419c8261563b565b6141a6818561569d565b93506141b68185602086016157c0565b6141bf8161583d565b840191505092915050565b60006141d58261563b565b6141df81856156ae565b93506141ef8185602086016157c0565b80840191505092915050565b60006142086001836156ae565b91507f0a000000000000000000000000000000000000000000000000000000000000006000830152600182019050919050565b6000614248600a836156ae565b91507f222c2266656573223a5b000000000000000000000000000000000000000000006000830152600a82019050919050565b6000614288602f836156ae565b91507f6f6e455243373231526563656976656428616464726573732c6164647265737360008301527f2c75696e743235362c62797465732900000000000000000000000000000000006020830152602f82019050919050565b60006142ee60158361569d565b91507f4552433732315f4f574e45525f4d49534d4154434800000000000000000000006000830152602082019050919050565b600061432e601c836156ae565b91507f19457468657265756d205369676e6564204d6573736167653a0a3332000000006000830152601c82019050919050565b600061436e600b836156ae565b91507f222c22696d616765223a220000000000000000000000000000000000000000006000830152600b82019050919050565b60006143ae600a836156ae565b91507f222c226e616d65223a22000000000000000000000000000000000000000000006000830152600a82019050919050565b60006143ee60108361569d565b91507f4d757374206e6f74206265207a65726f000000000000000000000000000000006000830152602082019050919050565b600061442e6009836156ae565b91507f222c22737562223a2200000000000000000000000000000000000000000000006000830152600982019050919050565b600061446e60118361569d565b91507f4552433732315f5a45524f5f4f574e45520000000000000000000000000000006000830152602082019050919050565b60006144ae6003836156ae565b91507f08021200000000000000000000000000000000000000000000000000000000006000830152600382019050919050565b60006144ee60188361569d565b91507f4d757374206e6f74206265206e756c6c206164647265737300000000000000006000830152602082019050919050565b600061452e60158361569d565b91507f4d757374206265207369676e65642062792069737300000000000000000000006000830152602082019050919050565b600061456e6011836156ae565b91507f222c226465736372697074696f6e223a220000000000000000000000000000006000830152601182019050919050565b60006145ae60198361569d565b91507f4552433732315f5a45524f5f4f574e45525f41444452455353000000000000006000830152602082019050919050565b60006145ee6010836156ae565b91507f5d2c22726563697069656e7473223a5b000000000000000000000000000000006000830152601082019050919050565b600061462e60158361569d565b91507f4d757374206265206d696e7465642062792073756200000000000000000000006000830152602082019050919050565b600061466e600f836156ae565b91507f5d2c227369676e6174757265223a2200000000000000000000000000000000006000830152600f82019050919050565b60006146ae60178361569d565b91507f4552433732315f494e56414c49445f53454c4543544f520000000000000000006000830152602082019050919050565b60006146ee601b8361569d565b91507f4552433732315f4f574e45525f414c52454144595f45584953545300000000006000830152602082019050919050565b600061472e6002836156ae565b91507f12200000000000000000000000000000000000000000000000000000000000006000830152600282019050919050565b600061476e60168361569d565b91507f4552433732315f494e56414c49445f5350454e444552000000000000000000006000830152602082019050919050565b60006147ae6001836156ae565b91507f22000000000000000000000000000000000000000000000000000000000000006000830152600182019050919050565b60006147ee6015836156ae565b91507f68747470733a2f2f697066732e696f2f697066732f00000000000000000000006000830152601582019050919050565b600061482e600c836156ae565b91507f7b22636861696e4964223a2200000000000000000000000000000000000000006000830152600c82019050919050565b600061486e600a836156ae565b91507f222c22726f6f74223a22000000000000000000000000000000000000000000006000830152600a82019050919050565b60006148ae6002836156ae565b91507f227d0000000000000000000000000000000000000000000000000000000000006000830152600282019050919050565b60006148ee601f8361569d565b91507f4d75737420626520696e636c7564656420696e206d65726b6c652074726565006000830152602082019050919050565b600061492e600b836156ae565b91507f222c22626c616e6b223a220000000000000000000000000000000000000000006000830152600b82019050919050565b600061496e600d836156ae565b91507f222c22746f6b656e4964223a22000000000000000000000000000000000000006000830152600d82019050919050565b60006149ae6012836156ae565b91507f222c22696e697469616c5072696365223a2200000000000000000000000000006000830152601282019050919050565b60006149ee600b836156ae565b91507f222c2270726f6f66223a5b0000000000000000000000000000000000000000006000830152600b82019050919050565b6000614a2e6009836156ae565b91507f5d2c22697373223a2200000000000000000000000000000000000000000000006000830152600982019050919050565b6000614a6e60168361569d565b91507f4552433732315f5a45524f5f544f5f41444452455353000000000000000000006000830152602082019050919050565b6000614aae600083615681565b9150600082019050919050565b6000614ac860138361569d565b91507f4d7573742062652073616d65206c656e677468000000000000000000000000006000830152602082019050919050565b6000614b0860168361569d565b91507f4d7573742070617920696e697469616c5f7072696365000000000000000000006000830152602082019050919050565b6000614b486001836156ae565b91507f18000000000000000000000000000000000000000000000000000000000000006000830152600182019050919050565b6000614b88600d836156ae565b91507f222c2261646472657373223a22000000000000000000000000000000000000006000830152600d82019050919050565b6000614bc860158361569d565b91507f4552433732315f494e56414c49445f53454e44455200000000000000000000006000830152602082019050919050565b614c0481615752565b82525050565b614c1381615752565b82525050565b614c2a614c2582615752565b615833565b82525050565b614c398161575c565b82525050565b6000614c4b8284613f79565b60148201915081905092915050565b6000614c668284613f44565b60148201915081905092915050565b6000614c81828461406a565b60208201915081905092915050565b6000614c9c828561406a565b602082019150614cac828461406a565b6020820191508190509392505050565b6000614cc882846140ae565b915081905092915050565b6000614cdf82856140ae565b9150614ceb82846140ae565b91508190509392505050565b6000614d0382886140ae565b9150614d0f82876140ae565b9150614d1b82866140ae565b9150614d2782856140ae565b9150614d3382846140ae565b91508190509695505050505050565b6000614d4e82866140ae565b9150614d5a8285614160565b9150614d65826147a1565b9150614d718284614160565b9150614d7c826147a1565b9150819050949350505050565b6000614d94826141fb565b9150614da082876140ae565b9150614dab826144a1565b9150614db782866140ae565b9150614dc382856140ae565b9150614dce82614b3b565b9150614dda82846140ae565b915081905095945050505050565b6000614df38261427b565b9150819050919050565b6000614e0882614321565b9150614e14828461406a565b60208201915081905092915050565b6000614e2e826143a1565b9150614e3a82876141ca565b9150614e4582614561565b9150614e5182866141ca565b9150614e5c82614361565b9150614e6882856141ca565b9150614e7382614921565b9150614e7f82846141ca565b915081905095945050505050565b6000614e98826145e1565b9150614ea48286614160565b9150614eaf82614a21565b9150614ebb8285614160565b9150614ec682614421565b9150614ed28284614160565b9150819050949350505050565b6000614eea82614721565b9150614ef682846140ae565b915081905092915050565b6000614f0c826147e1565b9150614f1882846140ae565b915081905092915050565b6000614f2e82614821565b9150614f3a8286614160565b9150614f4582614b7b565b9150614f518285614160565b9150614f5c82614961565b9150614f688284614160565b9150819050949350505050565b6000614f8082614861565b9150614f8c8286614160565b9150614f97826149e1565b9150614fa38285614160565b9150614fae82614661565b9150614fba8284614160565b9150614fc5826148a1565b9150819050949350505050565b6000614fdd826149a1565b9150614fe98285614160565b9150614ff48261423b565b91506150008284614160565b91508190509392505050565b6000615018828e614c19565b602082019150615028828d613f79565b601482019150615038828c6141ca565b9150615044828b6141ca565b9150615050828a6141ca565b915061505c82896141ca565b91506150688288614c19565b6020820191506150788287613fee565b91506150848286613f90565b91506150908285613f44565b6014820191506150a08284613f79565b6014820191508190509c9b505050505050505050505050565b60006020820190506150ce6000830184613f5b565b92915050565b60006080820190506150e96000830188613f26565b6150f66020830187613f5b565b6151036040830186614bfb565b8181036060830152615116818486614081565b90509695505050505050565b60006080820190506151376000830186613f26565b6151446020830185613f5b565b6151516040830184614bfb565b818103606083015261516281614aa1565b9050949350505050565b6000602082019050615181600083018461404c565b92915050565b600060808201905061519c600083018761405b565b6151a96020830186614c30565b6151b6604083018561405b565b6151c3606083018461405b565b95945050505050565b60006060820190506151e16000830186614118565b6151ee6020830185614bfb565b6151fb6040830184614bfb565b949350505050565b6000602082019050818103600083015261521d8184614191565b905092915050565b6000602082019050818103600083015261523f8184614127565b905092915050565b6000610120820190508181036000830152615262818c614191565b90508181036020830152615276818b614191565b9050818103604083015261528a818a614191565b9050818103606083015261529e8189614191565b90506152ad6080830188614bfb565b6152ba60a0830187613f35565b6152c760c0830186613f5b565b6152d460e083018561405b565b8181036101008301526152e781846140df565b90509a9950505050505050505050565b60006020820190508181036000830152615310816142e1565b9050919050565b60006020820190508181036000830152615330816143e1565b9050919050565b6000602082019050818103600083015261535081614461565b9050919050565b60006020820190508181036000830152615370816144e1565b9050919050565b6000602082019050818103600083015261539081614521565b9050919050565b600060208201905081810360008301526153b0816145a1565b9050919050565b600060208201905081810360008301526153d081614621565b9050919050565b600060208201905081810360008301526153f0816146a1565b9050919050565b60006020820190508181036000830152615410816146e1565b9050919050565b6000602082019050818103600083015261543081614761565b9050919050565b60006020820190508181036000830152615450816148e1565b9050919050565b6000602082019050818103600083015261547081614a61565b9050919050565b6000602082019050818103600083015261549081614abb565b9050919050565b600060208201905081810360008301526154b081614afb565b9050919050565b600060208201905081810360008301526154d081614bbb565b9050919050565b60006020820190506154ec6000830184614bfb565b92915050565b6000604051905081810181811067ffffffffffffffff8211171561551557600080fd5b8060405250919050565b600067ffffffffffffffff82111561553657600080fd5b602082029050602081019050919050565b600067ffffffffffffffff82111561555e57600080fd5b602082029050602081019050919050565b600067ffffffffffffffff82111561558657600080fd5b602082029050602081019050919050565b600067ffffffffffffffff8211156155ae57600080fd5b601f19601f8301169050602081019050919050565b600067ffffffffffffffff8211156155da57600080fd5b601f19601f8301169050602081019050919050565b6000819050602082019050919050565b6000819050602082019050919050565b600081519050919050565b600081519050919050565b600081519050919050565b600081519050919050565b600081519050919050565b600081519050919050565b6000602082019050919050565b6000602082019050919050565b600081905092915050565b600081905092915050565b600082825260208201905092915050565b600081905092915050565b600082825260208201905092915050565b600081905092915050565b60006156c482615732565b9050919050565b60006156d682615732565b9050919050565b60008115159050919050565b6000819050919050565b60007fffffffff0000000000000000000000000000000000000000000000000000000082169050919050565b600081905061572d8261585b565b919050565b600073ffffffffffffffffffffffffffffffffffffffff82169050919050565b6000819050919050565b600060ff82169050919050565b60006157748261578d565b9050919050565b60006157868261571f565b9050919050565b60006157988261579f565b9050919050565b60006157aa82615732565b9050919050565b82818337600083830152505050565b60005b838110156157de5780820151818401526020810190506157c3565b838111156157ed576000848401525b50505050565b60006157fe82615821565b9050919050565b600061581082615821565b9050919050565b6000819050919050565b600061582c8261584e565b9050919050565b6000819050919050565b6000601f19601f8301169050919050565b60008160601b9050919050565b6004811061586557fe5b50565b615871816156b9565b811461587c57600080fd5b50565b615888816156cb565b811461589357600080fd5b50565b61589f816156dd565b81146158aa57600080fd5b50565b6158b6816156e9565b81146158c157600080fd5b50565b6158cd816156f3565b81146158d857600080fd5b50565b6158e481615752565b81146158ef57600080fd5b5056fe31323334353637383941424344454647484a4b4c4d4e505152535455565758595a6162636465666768696a6b6d6e6f707172737475767778797aa365627a7a72315820a4822be2d338e0410c33fc2121c754e687fb48dc990c4f176bee3405ed1b831c6c6578706572696d656e74616cf564736f6c63430005110040",
  "linkReferences": {},
  "deployedLinkReferences": {}
}