{
  "_format": "hh-sol-artifact-1",
  "contractName": "Chocomint",
  "sourceName": "contracts/Chocomint.sol",
  "abi": [
    {
      "inputs": [
        {
          "internalType": "string",
          "name": "_name",
          "type": "string"
        },
        {
          "internalType": "string",
          "name": "_symbol",
          "type": "string"
        }
      ],
      "payable": false,
      "stateMutability": "nonpayable",
      "type": "constructor"
    },
    {
      "anonymous": false,
      "inputs": [
        {
          "indexed": true,
          "internalType": "address",
          "name": "owner",
          "type": "address"
        },
        {
          "indexed": true,
          "internalType": "address",
          "name": "approved",
          "type": "address"
        },
        {
          "indexed": true,
          "internalType": "uint256",
          "name": "tokenId",
          "type": "uint256"
        }
      ],
      "name": "Approval",
      "type": "event"
    },
    {
      "anonymous": false,
      "inputs": [
        {
          "indexed": true,
          "internalType": "address",
          "name": "owner",
          "type": "address"
        },
        {
          "indexed": true,
          "internalType": "address",
          "name": "operator",
          "type": "address"
        },
        {
          "indexed": false,
          "internalType": "bool",
          "name": "approved",
          "type": "bool"
        }
      ],
      "name": "ApprovalForAll",
      "type": "event"
    },
    {
      "anonymous": false,
      "inputs": [
        {
          "indexed": true,
          "internalType": "address",
          "name": "from",
          "type": "address"
        },
        {
          "indexed": true,
          "internalType": "address",
          "name": "to",
          "type": "address"
        },
        {
          "indexed": true,
          "internalType": "uint256",
          "name": "tokenId",
          "type": "uint256"
        }
      ],
      "name": "Transfer",
      "type": "event"
    },
    {
      "constant": false,
      "inputs": [
        {
          "internalType": "address",
          "name": "to",
          "type": "address"
        },
        {
          "internalType": "uint256",
          "name": "tokenId",
          "type": "uint256"
        }
      ],
      "name": "approve",
      "outputs": [],
      "payable": false,
      "stateMutability": "nonpayable",
      "type": "function"
    },
    {
      "constant": true,
      "inputs": [
        {
          "internalType": "address",
          "name": "owner",
          "type": "address"
        }
      ],
      "name": "balanceOf",
      "outputs": [
        {
          "internalType": "uint256",
          "name": "",
          "type": "uint256"
        }
      ],
      "payable": false,
      "stateMutability": "view",
      "type": "function"
    },
    {
      "constant": true,
      "inputs": [
        {
          "internalType": "uint256",
          "name": "tokenId",
          "type": "uint256"
        }
      ],
      "name": "getApproved",
      "outputs": [
        {
          "internalType": "address",
          "name": "",
          "type": "address"
        }
      ],
      "payable": false,
      "stateMutability": "view",
      "type": "function"
    },
    {
      "constant": true,
      "inputs": [
        {
          "internalType": "uint256",
          "name": "",
          "type": "uint256"
        }
      ],
      "name": "imageMemory",
      "outputs": [
        {
          "internalType": "bytes32",
          "name": "",
          "type": "bytes32"
        }
      ],
      "payable": false,
      "stateMutability": "view",
      "type": "function"
    },
    {
      "constant": true,
      "inputs": [
        {
          "internalType": "address",
          "name": "owner",
          "type": "address"
        },
        {
          "internalType": "address",
          "name": "operator",
          "type": "address"
        }
      ],
      "name": "isApprovedForAll",
      "outputs": [
        {
          "internalType": "bool",
          "name": "",
          "type": "bool"
        }
      ],
      "payable": false,
      "stateMutability": "view",
      "type": "function"
    },
    {
      "constant": true,
      "inputs": [
        {
          "internalType": "uint256",
          "name": "",
          "type": "uint256"
        }
      ],
      "name": "issMemory",
      "outputs": [
        {
          "internalType": "address",
          "name": "",
          "type": "address"
        }
      ],
      "payable": false,
      "stateMutability": "view",
      "type": "function"
    },
    {
      "constant": false,
      "inputs": [
        {
          "internalType": "bytes32",
          "name": "_image",
          "type": "bytes32"
        }
      ],
      "name": "mint",
      "outputs": [],
      "payable": false,
      "stateMutability": "nonpayable",
      "type": "function"
    },
    {
      "constant": true,
      "inputs": [],
      "name": "name",
      "outputs": [
        {
          "internalType": "string",
          "name": "",
          "type": "string"
        }
      ],
      "payable": false,
      "stateMutability": "view",
      "type": "function"
    },
    {
      "constant": true,
      "inputs": [
        {
          "internalType": "uint256",
          "name": "",
          "type": "uint256"
        }
      ],
      "name": "nameMemory",
      "outputs": [
        {
          "internalType": "bytes32",
          "name": "",
          "type": "bytes32"
        }
      ],
      "payable": false,
      "stateMutability": "view",
      "type": "function"
    },
    {
      "constant": true,
      "inputs": [
        {
          "internalType": "uint256",
          "name": "tokenId",
          "type": "uint256"
        }
      ],
      "name": "ownerOf",
      "outputs": [
        {
          "internalType": "address",
          "name": "",
          "type": "address"
        }
      ],
      "payable": false,
      "stateMutability": "view",
      "type": "function"
    },
    {
      "constant": false,
      "inputs": [
        {
          "internalType": "address",
          "name": "from",
          "type": "address"
        },
        {
          "internalType": "address",
          "name": "to",
          "type": "address"
        },
        {
          "internalType": "uint256",
          "name": "tokenId",
          "type": "uint256"
        }
      ],
      "name": "safeTransferFrom",
      "outputs": [],
      "payable": false,
      "stateMutability": "nonpayable",
      "type": "function"
    },
    {
      "constant": false,
      "inputs": [
        {
          "internalType": "address",
          "name": "from",
          "type": "address"
        },
        {
          "internalType": "address",
          "name": "to",
          "type": "address"
        },
        {
          "internalType": "uint256",
          "name": "tokenId",
          "type": "uint256"
        },
        {
          "internalType": "bytes",
          "name": "_data",
          "type": "bytes"
        }
      ],
      "name": "safeTransferFrom",
      "outputs": [],
      "payable": false,
      "stateMutability": "nonpayable",
      "type": "function"
    },
    {
      "constant": false,
      "inputs": [
        {
          "internalType": "address",
          "name": "to",
          "type": "address"
        },
        {
          "internalType": "bool",
          "name": "approved",
          "type": "bool"
        }
      ],
      "name": "setApprovalForAll",
      "outputs": [],
      "payable": false,
      "stateMutability": "nonpayable",
      "type": "function"
    },
    {
      "constant": true,
      "inputs": [
        {
          "internalType": "bytes4",
          "name": "interfaceId",
          "type": "bytes4"
        }
      ],
      "name": "supportsInterface",
      "outputs": [
        {
          "internalType": "bool",
          "name": "",
          "type": "bool"
        }
      ],
      "payable": false,
      "stateMutability": "view",
      "type": "function"
    },
    {
      "constant": true,
      "inputs": [],
      "name": "symbol",
      "outputs": [
        {
          "internalType": "string",
          "name": "",
          "type": "string"
        }
      ],
      "payable": false,
      "stateMutability": "view",
      "type": "function"
    },
    {
      "constant": true,
      "inputs": [
        {
          "internalType": "uint256",
          "name": "tokenId",
          "type": "uint256"
        }
      ],
      "name": "tokenURI",
      "outputs": [
        {
          "internalType": "string",
          "name": "",
          "type": "string"
        }
      ],
      "payable": false,
      "stateMutability": "view",
      "type": "function"
    },
    {
      "constant": false,
      "inputs": [
        {
          "internalType": "address",
          "name": "from",
          "type": "address"
        },
        {
          "internalType": "address",
          "name": "to",
          "type": "address"
        },
        {
          "internalType": "uint256",
          "name": "tokenId",
          "type": "uint256"
        }
      ],
      "name": "transferFrom",
      "outputs": [],
      "payable": false,
      "stateMutability": "nonpayable",
      "type": "function"
    }
  ],
  "bytecode": "0x60806040523480156200001157600080fd5b5060405162002542380380620025428339810160408190526200003491620001fa565b6200004f6301ffc9a760e01b6001600160e01b036200009e16565b6200006a6380ac58cd60e01b6001600160e01b036200009e16565b81516200007f906008906020850190620000f9565b50805162000095906009906020840190620000f9565b50505062000346565b6001600160e01b03198082161415620000d45760405162461bcd60e51b8152600401620000cb90620002a3565b60405180910390fd5b6001600160e01b0319166000908152602081905260409020805460ff19166001179055565b828054600181600116156101000203166002900490600052602060002090601f016020900481019282601f106200013c57805160ff19168380011785556200016c565b828001600101855582156200016c579182015b828111156200016c5782518255916020019190600101906200014f565b506200017a9291506200017e565b5090565b6200019b91905b808211156200017a576000815560010162000185565b90565b600082601f830112620001b057600080fd5b8151620001c7620001c182620002e2565b620002bb565b91508082526020830160208301858383011115620001e457600080fd5b620001f183828462000313565b50505092915050565b600080604083850312156200020e57600080fd5b82516001600160401b038111156200022557600080fd5b62000233858286016200019e565b92505060208301516001600160401b038111156200025057600080fd5b6200025e858286016200019e565b9150509250929050565b600062000277601c836200030a565b7f4552433136353a20696e76616c696420696e7465726661636520696400000000815260200192915050565b60208082528101620002b58162000268565b92915050565b6040518181016001600160401b0381118282101715620002da57600080fd5b604052919050565b60006001600160401b03821115620002f957600080fd5b506020601f91909101601f19160190565b90815260200190565b60005b838110156200033057818101518382015260200162000316565b8381111562000340576000848401525b50505050565b6121ec80620003566000396000f3fe608060405234801561001057600080fd5b506004361061010b5760003560e01c806370a08231116100a2578063b88d4fde11610071578063b88d4fde1461021d578063c87b56dd14610230578063cbc200ed14610243578063db88c05e14610256578063e985e9c5146102695761010b565b806370a08231146101dc57806395d89b41146101ef578063a22cb465146101f7578063adf2cead1461020a5761010b565b806323b872dd116100de57806323b872dd14610183578063263e55d61461019657806342842e0e146101b65780636352211e146101c95761010b565b806301ffc9a71461011057806306fdde0314610139578063081812fc1461014e578063095ea7b31461016e575b600080fd5b61012361011e36600461161a565b61027c565b6040516101309190611f46565b60405180910390f35b61014161029f565b6040516101309190611f62565b61016161015c3660046115de565b61032d565b6040516101309190611efe565b61018161017c3660046115ae565b610379565b005b6101816101913660046114b8565b61045e565b6101a96101a43660046115de565b61049b565b6040516101309190611f54565b6101816101c43660046114b8565b6104ad565b6101616101d73660046115de565b6104c8565b6101a96101ea366004611460565b610503565b61014161054c565b61018161020536600461157e565b6105a7565b6101816102183660046115de565b610675565b61018161022b366004611505565b6106e7565b61014161023e3660046115de565b610726565b6101616102513660046115de565b610875565b6101a96102643660046115de565b610890565b61012361027736600461147e565b6108a2565b6001600160e01b0319811660009081526020819052604090205460ff165b919050565b6008805460408051602060026001851615610100026000190190941693909304601f810184900484028201840190925281815292918301828280156103255780601f106102fa57610100808354040283529160200191610325565b820191906000526020600020905b81548152906001019060200180831161030857829003601f168201915b505050505081565b6000610338826108d0565b61035d5760405162461bcd60e51b815260040161035490612013565b60405180910390fd5b506000908152600260205260409020546001600160a01b031690565b6000610384826104c8565b9050806001600160a01b0316836001600160a01b031614156103b85760405162461bcd60e51b815260040161035490612033565b806001600160a01b03166103ca6108ed565b6001600160a01b031614806103e657506103e6816102776108ed565b6104025760405162461bcd60e51b815260040161035490611fd3565b60008281526002602052604080822080546001600160a01b0319166001600160a01b0387811691821790925591518593918516917f8c5be1e5ebec7d5bd14f71427d1e84f3dd0314c0f7b2291e5b200ac8c7c3b92591a4505050565b61046f6104696108ed565b826108f1565b61048b5760405162461bcd60e51b815260040161035490612043565b610496838383610976565b505050565b60056020526000908152604090205481565b610496838383604051806020016040528060008152506106e7565b6000818152600160205260408120546001600160a01b0316806104fd5760405162461bcd60e51b815260040161035490611ff3565b92915050565b60006001600160a01b03821661052b5760405162461bcd60e51b815260040161035490611fe3565b6001600160a01b03821660009081526003602052604090206104fd90610a7c565b6009805460408051602060026001851615610100026000190190941693909304601f810184900484028201840190925281815292918301828280156103255780601f106102fa57610100808354040283529160200191610325565b6105af6108ed565b6001600160a01b0316826001600160a01b031614156105e05760405162461bcd60e51b815260040161035490611fa3565b80600460006105ed6108ed565b6001600160a01b03908116825260208083019390935260409182016000908120918716808252919093529120805460ff1916921515929092179091556106316108ed565b6001600160a01b03167f17307eab39ab6107e8899845ad3d59bd9653f200f220920489ca2b5937696c31836040516106699190611f46565b60405180910390a35050565b600061067f610a80565b3083336040516020016106959493929190611eb6565b60408051601f1981840301815291815281516020928301206000818152600684528281208690556007909352912080546001600160a01b031916339081179091559091506106e39082610a84565b5050565b6106f86106f26108ed565b836108f1565b6107145760405162461bcd60e51b815260040161035490612043565b61072084848484610b4b565b50505050565b6060610731826108d0565b61074d5760405162461bcd60e51b815260040161035490611fc3565b61084f61084a61076361075e610a80565b610b7e565b61078b306040516020016107779190611d33565b604051602081830303815290604052610c31565b61079486610b7e565b600861079f88610b7e565b6040516020016107b0929190611d6c565b60408051601f198184030181529181526000898152600660205220546107d590610dc4565b60008981526007602090815260409182902054915161080492610777926001600160a01b039091169101611d33565b60405160200161081996959493929190611e15565b60408051601f198184030181529082905261083691602001611d48565b604051602081830303815290604052610dd7565b610dc4565b60405160200161085f9190611d48565b6040516020818303038152906040529050919050565b6007602052600090815260409020546001600160a01b031681565b60066020526000908152604090205481565b6001600160a01b03918216600090815260046020908152604080832093909416825291909152205460ff1690565b6000908152600160205260409020546001600160a01b0316151590565b3390565b60006108fc826108d0565b6109185760405162461bcd60e51b815260040161035490611fb3565b6000610923836104c8565b9050806001600160a01b0316846001600160a01b0316148061095e5750836001600160a01b03166109538461032d565b6001600160a01b0316145b8061096e575061096e81856108a2565b949350505050565b826001600160a01b0316610989826104c8565b6001600160a01b0316146109af5760405162461bcd60e51b815260040161035490612023565b6001600160a01b0382166109d55760405162461bcd60e51b815260040161035490611f93565b6109de81610e71565b6001600160a01b03831660009081526003602052604090206109ff90610eae565b6001600160a01b0382166000908152600360205260409020610a2090610ec5565b60008181526001602052604080822080546001600160a01b0319166001600160a01b0386811691821790925591518493918716917fddf252ad1be2c89b69c2b068fc378daa952ba7f163c4a11628f55a4df523b3ef91a4505050565b5490565b4690565b6001600160a01b038216610aaa5760405162461bcd60e51b815260040161035490612003565b610ab3816108d0565b15610ad05760405162461bcd60e51b815260040161035490611f83565b600081815260016020908152604080832080546001600160a01b0319166001600160a01b038716908117909155835260039091529020610b0f90610ec5565b60405181906001600160a01b038416906000907fddf252ad1be2c89b69c2b068fc378daa952ba7f163c4a11628f55a4df523b3ef908290a45050565b610b56848484610976565b610b6284848484610ece565b6107205760405162461bcd60e51b815260040161035490611f73565b606081610ba357506040805180820190915260018152600360fc1b602082015261029a565b8160005b8115610bbb57600101600a82049150610ba7565b6060816040519080825280601f01601f191660200182016040528015610be8576020820181803883390190505b5090505b841561096e5760001990910190600a850660300160f81b818381518110610c0f57fe5b60200101906001600160f81b031916908160001a905350600a85049450610bec565b6060806040518060400160405280601081526020016f181899199a1a9b1b9c1cb0b131b232b360811b8152509050606083516002026002016040519080825280601f01601f191660200182016040528015610c93576020820181803883390190505b509050600360fc1b81600081518110610ca857fe5b60200101906001600160f81b031916908160001a905350600f60fb1b81600181518110610cd157fe5b60200101906001600160f81b031916908160001a90535060005b8451811015610dbc57826004868381518110610d0357fe5b016020015182516001600160f81b031990911690911c60f81c908110610d2557fe5b602001015160f81c60f81b828260020260020181518110610d4257fe5b60200101906001600160f81b031916908160001a90535082858281518110610d6657fe5b602091010151815160f89190911c600f16908110610d8057fe5b602001015160f81c60f81b828260020260030181518110610d9d57fe5b60200101906001600160f81b031916908160001a905350600101610ceb565b509392505050565b60606104fd610dd283611008565b61101b565b60006060610de5835161102e565b90506060610dfc825160020285516004010161102e565b9050600281838685604051602001610e179493929190611d83565b60408051601f1981840301815290829052610e3191611d48565b602060405180830381855afa158015610e4e573d6000803e3d6000fd5b5050506040513d601f19601f8201168201806040525061096e91908101906115fc565b6000818152600260205260409020546001600160a01b031615610eab57600081815260026020526040902080546001600160a01b03191690555b50565b8054610ec190600163ffffffff61108c16565b9055565b80546001019055565b6000610ee2846001600160a01b03166110d5565b610eee5750600161096e565b600060606001600160a01b038616630a85bd0160e11b610f0c6108ed565b898888604051602401610f229493929190611f0c565b60408051601f198184030181529181526020820180516001600160e01b03166001600160e01b0319909416939093179092529051610f609190611d48565b6000604051808303816000865af19150503d8060008114610f9d576040519150601f19603f3d011682016040523d82523d6000602084013e610fa2565b606091505b509150915081610fd457805115610fbc5780518082602001fd5b60405162461bcd60e51b815260040161035490611f73565b600081806020019051610fea9190810190611638565b6001600160e01b031916630a85bd0160e11b14935061096e92505050565b60606104fd6110168361110e565b611121565b60608160405160200161085f9190611dde565b6060608082101561104957611042826112f5565b905061029a565b611058608083066080016112f5565b6110656080845b046112f5565b604051602001611076929190611d54565b604051602081830303815290604052905061029a565b60006110ce83836040518060400160405280601e81526020017f536166654d6174683a207375627472616374696f6e206f766572666c6f77000081525061139e565b9392505050565b6000813f7fc5d2460186f7233c927e7db2dcc703c0e500b653ca82273b7bfad8045d85a47081811480159061096e575050151592915050565b60608160405160200161085f9190611df5565b6060806040518060600160405280603a8152602001612170603a913960408051602e8082526105e0820190925291925060609190602082016105c0803883390190505060408051602e8082526060828101909352929350909160208201818038833901905050905060008260008151811061119857fe5b60ff90921660209283029190910190910152600160005b865181101561127b5760008782815181106111c657fe5b016020015160f81c905060005b8360ff16811015611234578581815181106111ea57fe5b602002602001015160ff166101000282019150603a828161120757fe5b0686828151811061121457fe5b60ff90921660209283029190910190910152603a820491506001016111d3565b505b801561127257603a8106858460ff168151811061124f57fe5b60ff90921660209283029190910190910152600190920191603a81049050611236565b506001016111af565b5060005b8160ff168110156112ea578484826001850360ff16038151811061129f57fe5b602002602001015160ff16815181106112b457fe5b602001015160f81c60f81b8382815181106112cb57fe5b60200101906001600160f81b031916908160001a90535060010161127f565b509095945050505050565b606081611311575060408051600081526020810190915261029a565b6040805160018082528183019092526001600160f81b031960f885901b169160609190602082018180388339019050509050818160008151811061135157fe5b60200101906001600160f81b031916908160001a9053506113746101008561105f565b81604051602001611386929190611d54565b6040516020818303038152906040529250505061029a565b600081848411156113c25760405162461bcd60e51b81526004016103549190611f62565b505050900390565b80356104fd81612140565b80356104fd81612154565b80356104fd8161215d565b80516104fd8161215d565b80356104fd81612166565b80516104fd81612166565b600082601f83011261141d57600080fd5b813561143061142b8261207a565b612053565b9150808252602083016020830185838301111561144c57600080fd5b6114578382846120e7565b50505092915050565b60006020828403121561147257600080fd5b600061096e84846113ca565b6000806040838503121561149157600080fd5b600061149d85856113ca565b92505060206114ae858286016113ca565b9150509250929050565b6000806000606084860312156114cd57600080fd5b60006114d986866113ca565b93505060206114ea868287016113ca565b92505060406114fb868287016113e0565b9150509250925092565b6000806000806080858703121561151b57600080fd5b600061152787876113ca565b9450506020611538878288016113ca565b9350506040611549878288016113e0565b925050606085013567ffffffffffffffff81111561156657600080fd5b6115728782880161140c565b91505092959194509250565b6000806040838503121561159157600080fd5b600061159d85856113ca565b92505060206114ae858286016113d5565b600080604083850312156115c157600080fd5b60006115cd85856113ca565b92505060206114ae858286016113e0565b6000602082840312156115f057600080fd5b600061096e84846113e0565b60006020828403121561160e57600080fd5b600061096e84846113eb565b60006020828403121561162c57600080fd5b600061096e84846113f6565b60006020828403121561164a57600080fd5b600061096e8484611401565b61165f816120bb565b82525050565b61165f611671826120bb565b61211f565b61165f816120c6565b61165f816120cb565b61165f611694826120cb565b6120cb565b60006116a4826120ae565b6116ae81856120b2565b93506116be8185602086016120f3565b6116c781612130565b9093019392505050565b60006116dc826120ae565b6116e6818561029a565b93506116f68185602086016120f3565b9290920192915050565b60008154600181166000811461171d57600181146117405761177f565b607f600283041661172e818761029a565b60ff198416815295508501925061177f565b6002820461174e818761029a565b9550611759856120a2565b60005b828110156117785781548882015260019091019060200161175c565b5050850192505b505092915050565b600061179460018361029a565b600560f91b815260010192915050565b60006117b1600b8361029a565b6a11161134b6b0b3b2911d1160a91b8152600b0192915050565b60006117d8600a8361029a565b691116113730b6b2911d1160b11b8152600a0192915050565b60006117fe6032836120b2565b7f4552433732313a207472616e7366657220746f206e6f6e20455243373231526581527131b2b4bb32b91034b6b83632b6b2b73a32b960711b602082015260400192915050565b6000611852601c836120b2565b7f4552433732313a20746f6b656e20616c7265616479206d696e74656400000000815260200192915050565b600061188b60038361029a565b6204010960e91b815260030192915050565b60006118aa6024836120b2565b7f4552433732313a207472616e7366657220746f20746865207a65726f206164648152637265737360e01b602082015260400192915050565b60006118f06019836120b2565b7f4552433732313a20617070726f766520746f2063616c6c657200000000000000815260200192915050565b6000611929602c836120b2565b7f4552433732313a206f70657261746f7220717565727920666f72206e6f6e657881526b34b9ba32b73a103a37b5b2b760a11b602082015260400192915050565b600061197760078361029a565b66697066733a2f2f60c81b815260070192915050565b600061199a6010836120b2565b6f1d1bdad95b881b5d5cdd08195e1a5cdd60821b815260200192915050565b60006119c660028361029a565b609160f51b815260020192915050565b60006119e36038836120b2565b7f4552433732313a20617070726f76652063616c6c6572206973206e6f74206f7781527f6e6572206e6f7220617070726f76656420666f7220616c6c0000000000000000602082015260400192915050565b6000611a42600c8361029a565b6b3d9131b430b4b724b2111d1160a11b8152600c0192915050565b6000611a6a602a836120b2565b7f4552433732313a2062616c616e636520717565727920666f7220746865207a65815269726f206164647265737360b01b602082015260400192915050565b6000611ab66029836120b2565b7f4552433732313a206f776e657220717565727920666f72206e6f6e657869737481526832b73a103a37b5b2b760b91b602082015260400192915050565b6000611b0160028361029a565b61227d60f01b815260020192915050565b6000611b1f6020836120b2565b7f4552433732313a206d696e7420746f20746865207a65726f2061646472657373815260200192915050565b6000611b58602c836120b2565b7f4552433732313a20617070726f76656420717565727920666f72206e6f6e657881526b34b9ba32b73a103a37b5b2b760a11b602082015260400192915050565b6000611ba660158361029a565b7411161131b7b73a3930b1ba20b2323932b9b9911d1160591b815260150192915050565b6000611bd7600d8361029a565b6c1116113a37b5b2b724b2111d1160991b8152600d0192915050565b6000611c006029836120b2565b7f4552433732313a207472616e73666572206f6620746f6b656e2074686174206981526839903737ba1037bbb760b91b602082015260400192915050565b6000611c4b60018361029a565b602360f81b815260010192915050565b6000611c6860098361029a565b6811161134b9b9911d1160b91b815260090192915050565b6000611c8d6021836120b2565b7f4552433732313a20617070726f76616c20746f2063757272656e74206f776e658152603960f91b602082015260400192915050565b6000611cd06031836120b2565b7f4552433732313a207472616e736665722063616c6c6572206973206e6f74206f8152701ddb995c881b9bdc88185c1c1c9bdd9959607a1b602082015260400192915050565b6000611d2360018361029a565b600360fb1b815260010192915050565b6000611d3f8284611665565b50601401919050565b60006110ce82846116d1565b6000611d6082856116d1565b915061096e82846116d1565b6000611d788285611700565b9150611d6082611c3e565b6000611d8e82611787565b9150611d9a82876116d1565b9150611da58261187e565b9150611db182866116d1565b9150611dbd82856116d1565b9150611dc882611d16565b9150611dd482846116d1565b9695505050505050565b6000611de98261196a565b91506110ce82846116d1565b6000611e00826119b9565b9150611e0c8284611688565b50602001919050565b6000611e2082611a35565b9150611e2c82896116d1565b9150611e3782611b99565b9150611e4382886116d1565b9150611e4e82611bca565b9150611e5a82876116d1565b9150611e65826117cb565b9150611e7182866116d1565b9150611e7c826117a4565b9150611e8882856116d1565b9150611e9382611c5b565b9150611e9f82846116d1565b9150611eaa82611af4565b98975050505050505050565b6000611ec28287611688565b602082019150611ed28286611665565b601482019150611ee28285611688565b602082019150611ef28284611665565b50601401949350505050565b602081016104fd8284611656565b60808101611f1a8287611656565b611f276020830186611656565b611f34604083018561167f565b8181036060830152611dd48184611699565b602081016104fd8284611676565b602081016104fd828461167f565b602080825281016110ce8184611699565b602080825281016104fd816117f1565b602080825281016104fd81611845565b602080825281016104fd8161189d565b602080825281016104fd816118e3565b602080825281016104fd8161191c565b602080825281016104fd8161198d565b602080825281016104fd816119d6565b602080825281016104fd81611a5d565b602080825281016104fd81611aa9565b602080825281016104fd81611b12565b602080825281016104fd81611b4b565b602080825281016104fd81611bf3565b602080825281016104fd81611c80565b602080825281016104fd81611cc3565b60405181810167ffffffffffffffff8111828210171561207257600080fd5b604052919050565b600067ffffffffffffffff82111561209157600080fd5b506020601f91909101601f19160190565b60009081526020902090565b5190565b90815260200190565b60006104fd826120db565b151590565b90565b6001600160e01b03191690565b6001600160a01b031690565b82818337506000910152565b60005b8381101561210e5781810151838201526020016120f6565b838111156107205750506000910152565b60006104fd8260006104fd8261213a565b601f01601f191690565b60601b90565b612149816120bb565b8114610eab57600080fd5b612149816120c6565b612149816120cb565b612149816120ce56fe31323334353637383941424344454647484a4b4c4d4e505152535455565758595a6162636465666768696a6b6d6e6f707172737475767778797aa365627a7a7231582040cdc5662745d1ce999bcbe1cb7a1b3ab435088e2de8b11fc109a91636472f6b6c6578706572696d656e74616cf564736f6c63430005110040",
  "linkReferences": {},
  "deployedLinkReferences": {}
}